{
  "_format": "hh-sol-artifact-1",
  "contractName": "CallerContract",
  "sourceName": "contracts/DelegatesTest.sol",
  "abi": [
    {
      "inputs": [],
      "stateMutability": "payable",
      "type": "constructor"
    },
    {
      "inputs": [],
      "name": "name",
      "outputs": [
        {
          "internalType": "string",
          "name": "",
          "type": "string"
        }
      ],
      "stateMutability": "view",
      "type": "function"
    },
    {
      "inputs": [],
      "name": "sender",
      "outputs": [
        {
          "internalType": "address",
          "name": "",
          "type": "address"
        }
      ],
      "stateMutability": "view",
      "type": "function"
    },
    {
      "inputs": [
        {
          "internalType": "string",
          "name": "_name",
          "type": "string"
        },
        {
          "internalType": "contract TargetContractDelegate",
          "name": "tc",
          "type": "address"
        }
      ],
      "name": "testDelegateCall",
      "outputs": [],
      "stateMutability": "payable",
      "type": "function"
    },
    {
      "inputs": [],
      "name": "value",
      "outputs": [
        {
          "internalType": "uint256",
          "name": "",
          "type": "uint256"
        }
      ],
      "stateMutability": "view",
      "type": "function"
    }
  ],
  "bytecode": "0x60806040526109dc806100136000396000f3fe60806040526004361061003f5760003560e01c806306fdde03146100445780633fa4f2451461006f57806367e404ce1461009a578063a1404ddb146100c5575b600080fd5b34801561005057600080fd5b506100596100e1565b6040516100669190610369565b60405180910390f35b34801561007b57600080fd5b5061008461016f565b60405161009191906103a4565b60405180910390f35b3480156100a657600080fd5b506100af610175565b6040516100bc9190610400565b60405180910390f35b6100df60048036038101906100da91906105a2565b61019b565b005b600280546100ee9061062d565b80601f016020809104026020016040519081016040528092919081815260200182805461011a9061062d565b80156101675780601f1061013c57610100808354040283529160200191610167565b820191906000526020600020905b81548152906001019060200180831161014a57829003601f168201915b505050505081565b60005481565b600160009054906101000a900473ffffffffffffffffffffffffffffffffffffffff1681565b3460008190555033600160006101000a81548173ffffffffffffffffffffffffffffffffffffffff021916908373ffffffffffffffffffffffffffffffffffffffff16021790555081600290816101f2919061080a565b506000808273ffffffffffffffffffffffffffffffffffffffff166336c80bf560e01b60405160240161022490610928565b604051602081830303815290604052907bffffffffffffffffffffffffffffffffffffffffffffffffffffffff19166020820180517bffffffffffffffffffffffffffffffffffffffffffffffffffffffff838183161783525050505060405161028e919061098f565b600060405180830381855af49150503d80600081146102c9576040519150601f19603f3d011682016040523d82523d6000602084013e6102ce565b606091505b509150915050505050565b600081519050919050565b600082825260208201905092915050565b60005b838110156103135780820151818401526020810190506102f8565b60008484015250505050565b6000601f19601f8301169050919050565b600061033b826102d9565b61034581856102e4565b93506103558185602086016102f5565b61035e8161031f565b840191505092915050565b600060208201905081810360008301526103838184610330565b905092915050565b6000819050919050565b61039e8161038b565b82525050565b60006020820190506103b96000830184610395565b92915050565b600073ffffffffffffffffffffffffffffffffffffffff82169050919050565b60006103ea826103bf565b9050919050565b6103fa816103df565b82525050565b600060208201905061041560008301846103f1565b92915050565b6000604051905090565b600080fd5b600080fd5b600080fd5b600080fd5b7f4e487b7100000000000000000000000000000000000000000000000000000000600052604160045260246000fd5b6104718261031f565b810181811067ffffffffffffffff821117156104905761048f610439565b5b80604052505050565b60006104a361041b565b90506104af8282610468565b919050565b600067ffffffffffffffff8211156104cf576104ce610439565b5b6104d88261031f565b9050602081019050919050565b82818337600083830152505050565b6000610507610502846104b4565b610499565b90508281526020810184848401111561052357610522610434565b5b61052e8482856104e5565b509392505050565b600082601f83011261054b5761054a61042f565b5b813561055b8482602086016104f4565b91505092915050565b600061056f826103df565b9050919050565b61057f81610564565b811461058a57600080fd5b50565b60008135905061059c81610576565b92915050565b600080604083850312156105b9576105b8610425565b5b600083013567ffffffffffffffff8111156105d7576105d661042a565b5b6105e385828601610536565b92505060206105f48582860161058d565b9150509250929050565b7f4e487b7100000000000000000000000000000000000000000000000000000000600052602260045260246000fd5b6000600282049050600182168061064557607f821691505b602082108103610658576106576105fe565b5b50919050565b60008190508160005260206000209050919050565b60006020601f8301049050919050565b600082821b905092915050565b6000600883026106c07fffffffffffffffffffffffffffffffffffffffffffffffffffffffffffffffff82610683565b6106ca8683610683565b95508019841693508086168417925050509392505050565b6000819050919050565b60006107076107026106fd8461038b565b6106e2565b61038b565b9050919050565b6000819050919050565b610721836106ec565b61073561072d8261070e565b848454610690565b825550505050565b600090565b61074a61073d565b610755818484610718565b505050565b5b818110156107795761076e600082610742565b60018101905061075b565b5050565b601f8211156107be5761078f8161065e565b61079884610673565b810160208510156107a7578190505b6107bb6107b385610673565b83018261075a565b50505b505050565b600082821c905092915050565b60006107e1600019846008026107c3565b1980831691505092915050565b60006107fa83836107d0565b9150826002028217905092915050565b610813826102d9565b67ffffffffffffffff81111561082c5761082b610439565b5b610836825461062d565b61084182828561077d565b600060209050601f8311600181146108745760008415610862578287015190505b61086c85826107ee565b8655506108d4565b601f1984166108828661065e565b60005b828110156108aa57848901518255600182019150602085019450602081019050610885565b868310156108c757848901516108c3601f8916826107d0565b8355505b6001600288020188555050505b505050505050565b7f536f6d65204e616d650000000000000000000000000000000000000000000000600082015250565b60006109126009836102e4565b915061091d826108dc565b602082019050919050565b6000602082019050818103600083015261094181610905565b9050919050565b600081519050919050565b600081905092915050565b600061096982610948565b6109738185610953565b93506109838185602086016102f5565b80840191505092915050565b600061099b828461095e565b91508190509291505056fea26469706673582212209f5d9c030bdcf16fc9e083805436bd505f7e39e8f4d8804a32411438fe74a1ab64736f6c63430008110033",
  "linkReferences": {},
  "deployedLinkReferences": {}
}