{
  "_format": "hh-sol-artifact-1",
  "contractName": "TargetContractDelegate",
  "sourceName": "contracts/DelegatesTest.sol",
  "abi": [
    {
      "inputs": [],
      "name": "getValues",
      "outputs": [
        {
          "internalType": "string",
          "name": "",
          "type": "string"
        },
        {
          "internalType": "address",
          "name": "",
          "type": "address"
        },
        {
          "internalType": "uint256",
          "name": "",
          "type": "uint256"
        }
      ],
      "stateMutability": "view",
      "type": "function"
    },
    {
      "inputs": [],
      "name": "name",
      "outputs": [
        {
          "internalType": "string",
          "name": "",
          "type": "string"
        }
      ],
      "stateMutability": "view",
      "type": "function"
    },
    {
      "inputs": [],
      "name": "sender",
      "outputs": [
        {
          "internalType": "address",
          "name": "",
          "type": "address"
        }
      ],
      "stateMutability": "view",
      "type": "function"
    },
    {
      "inputs": [
        {
          "internalType": "string",
          "name": "_nameTarget",
          "type": "string"
        }
      ],
      "name": "targetFunction",
      "outputs": [],
      "stateMutability": "payable",
      "type": "function"
    },
    {
      "inputs": [],
      "name": "value",
      "outputs": [
        {
          "internalType": "uint256",
          "name": "",
          "type": "uint256"
        }
      ],
      "stateMutability": "view",
      "type": "function"
    }
  ],
  "bytecode": "0x608060405234801561001057600080fd5b50610918806100206000396000f3fe60806040526004361061004a5760003560e01c806306fdde031461004f57806319eb4a901461007a57806336c80bf5146100a75780633fa4f245146100c357806367e404ce146100ee575b600080fd5b34801561005b57600080fd5b50610064610119565b6040516100719190610382565b60405180910390f35b34801561008657600080fd5b5061008f6101a7565b60405161009e939291906103fe565b60405180910390f35b6100c160048036038101906100bc9190610585565b61026b565b005b3480156100cf57600080fd5b506100d86102c6565b6040516100e591906105ce565b60405180910390f35b3480156100fa57600080fd5b506101036102cc565b60405161011091906105e9565b60405180910390f35b6002805461012690610633565b80601f016020809104026020016040519081016040528092919081815260200182805461015290610633565b801561019f5780601f106101745761010080835404028352916020019161019f565b820191906000526020600020905b81548152906001019060200180831161018257829003601f168201915b505050505081565b60606000806002600160009054906101000a900473ffffffffffffffffffffffffffffffffffffffff166000548280546101e090610633565b80601f016020809104026020016040519081016040528092919081815260200182805461020c90610633565b80156102595780601f1061022e57610100808354040283529160200191610259565b820191906000526020600020905b81548152906001019060200180831161023c57829003601f168201915b50505050509250925092509250909192565b3460008190555033600160006101000a81548173ffffffffffffffffffffffffffffffffffffffff021916908373ffffffffffffffffffffffffffffffffffffffff16021790555080600290816102c29190610810565b5050565b60005481565b600160009054906101000a900473ffffffffffffffffffffffffffffffffffffffff1681565b600081519050919050565b600082825260208201905092915050565b60005b8381101561032c578082015181840152602081019050610311565b60008484015250505050565b6000601f19601f8301169050919050565b6000610354826102f2565b61035e81856102fd565b935061036e81856020860161030e565b61037781610338565b840191505092915050565b6000602082019050818103600083015261039c8184610349565b905092915050565b600073ffffffffffffffffffffffffffffffffffffffff82169050919050565b60006103cf826103a4565b9050919050565b6103df816103c4565b82525050565b6000819050919050565b6103f8816103e5565b82525050565b600060608201905081810360008301526104188186610349565b905061042760208301856103d6565b61043460408301846103ef565b949350505050565b6000604051905090565b600080fd5b600080fd5b600080fd5b600080fd5b7f4e487b7100000000000000000000000000000000000000000000000000000000600052604160045260246000fd5b61049282610338565b810181811067ffffffffffffffff821117156104b1576104b061045a565b5b80604052505050565b60006104c461043c565b90506104d08282610489565b919050565b600067ffffffffffffffff8211156104f0576104ef61045a565b5b6104f982610338565b9050602081019050919050565b82818337600083830152505050565b6000610528610523846104d5565b6104ba565b90508281526020810184848401111561054457610543610455565b5b61054f848285610506565b509392505050565b600082601f83011261056c5761056b610450565b5b813561057c848260208601610515565b91505092915050565b60006020828403121561059b5761059a610446565b5b600082013567ffffffffffffffff8111156105b9576105b861044b565b5b6105c584828501610557565b91505092915050565b60006020820190506105e360008301846103ef565b92915050565b60006020820190506105fe60008301846103d6565b92915050565b7f4e487b7100000000000000000000000000000000000000000000000000000000600052602260045260246000fd5b6000600282049050600182168061064b57607f821691505b60208210810361065e5761065d610604565b5b50919050565b60008190508160005260206000209050919050565b60006020601f8301049050919050565b600082821b905092915050565b6000600883026106c67fffffffffffffffffffffffffffffffffffffffffffffffffffffffffffffffff82610689565b6106d08683610689565b95508019841693508086168417925050509392505050565b6000819050919050565b600061070d610708610703846103e5565b6106e8565b6103e5565b9050919050565b6000819050919050565b610727836106f2565b61073b61073382610714565b848454610696565b825550505050565b600090565b610750610743565b61075b81848461071e565b505050565b5b8181101561077f57610774600082610748565b600181019050610761565b5050565b601f8211156107c45761079581610664565b61079e84610679565b810160208510156107ad578190505b6107c16107b985610679565b830182610760565b50505b505050565b600082821c905092915050565b60006107e7600019846008026107c9565b1980831691505092915050565b600061080083836107d6565b9150826002028217905092915050565b610819826102f2565b67ffffffffffffffff8111156108325761083161045a565b5b61083c8254610633565b610847828285610783565b600060209050601f83116001811461087a5760008415610868578287015190505b61087285826107f4565b8655506108da565b601f19841661088886610664565b60005b828110156108b05784890151825560018201915060208501945060208101905061088b565b868310156108cd57848901516108c9601f8916826107d6565b8355505b6001600288020188555050505b50505050505056fea264697066735822122099b0bf853e75216ad3c0951eb16085e9241a291780f8c2c83779622a49ea150b64736f6c63430008110033",
  "linkReferences": {},
  "deployedLinkReferences": {}
}