{
  "_format": "hh-sol-artifact-1",
  "contractName": "privateBank",
  "sourceName": "contracts/privateBank.sol",
  "abi": [
    {
      "inputs": [],
      "stateMutability": "nonpayable",
      "type": "constructor"
    },
    {
      "anonymous": false,
      "inputs": [
        {
          "indexed": false,
          "internalType": "address",
          "name": "",
          "type": "address"
        },
        {
          "indexed": false,
          "internalType": "uint256",
          "name": "",
          "type": "uint256"
        },
        {
          "indexed": false,
          "internalType": "uint256",
          "name": "",
          "type": "uint256"
        }
      ],
      "name": "accountClosed",
      "type": "event"
    },
    {
      "anonymous": false,
      "inputs": [
        {
          "indexed": false,
          "internalType": "address",
          "name": "",
          "type": "address"
        },
        {
          "indexed": false,
          "internalType": "uint256",
          "name": "",
          "type": "uint256"
        },
        {
          "indexed": false,
          "internalType": "uint256",
          "name": "",
          "type": "uint256"
        }
      ],
      "name": "fundsDeposited",
      "type": "event"
    },
    {
      "anonymous": false,
      "inputs": [
        {
          "indexed": false,
          "internalType": "uint256",
          "name": "",
          "type": "uint256"
        }
      ],
      "name": "miniumDepositChanged",
      "type": "event"
    },
    {
      "anonymous": false,
      "inputs": [
        {
          "indexed": false,
          "internalType": "address",
          "name": "",
          "type": "address"
        },
        {
          "indexed": false,
          "internalType": "uint256",
          "name": "",
          "type": "uint256"
        },
        {
          "indexed": false,
          "internalType": "uint256",
          "name": "",
          "type": "uint256"
        }
      ],
      "name": "newClientEnrolled",
      "type": "event"
    },
    {
      "anonymous": false,
      "inputs": [
        {
          "indexed": false,
          "internalType": "address",
          "name": "",
          "type": "address"
        },
        {
          "indexed": false,
          "internalType": "uint256",
          "name": "",
          "type": "uint256"
        },
        {
          "indexed": false,
          "internalType": "uint256",
          "name": "",
          "type": "uint256"
        }
      ],
      "name": "withdrawalDone",
      "type": "event"
    },
    {
      "inputs": [],
      "name": "BANK_ADDRESS",
      "outputs": [
        {
          "internalType": "address payable",
          "name": "",
          "type": "address"
        }
      ],
      "stateMutability": "view",
      "type": "function"
    },
    {
      "inputs": [
        {
          "internalType": "uint256",
          "name": "_minimum",
          "type": "uint256"
        }
      ],
      "name": "changeMiniumDeposit",
      "outputs": [],
      "stateMutability": "nonpayable",
      "type": "function"
    },
    {
      "inputs": [],
      "name": "checkAccountBalance",
      "outputs": [
        {
          "internalType": "uint256",
          "name": "",
          "type": "uint256"
        }
      ],
      "stateMutability": "view",
      "type": "function"
    },
    {
      "inputs": [],
      "name": "closeAccount",
      "outputs": [
        {
          "internalType": "bool",
          "name": "",
          "type": "bool"
        }
      ],
      "stateMutability": "payable",
      "type": "function"
    },
    {
      "inputs": [],
      "name": "depositFunds",
      "outputs": [],
      "stateMutability": "payable",
      "type": "function"
    },
    {
      "inputs": [],
      "name": "enrollClient",
      "outputs": [
        {
          "internalType": "bool",
          "name": "",
          "type": "bool"
        }
      ],
      "stateMutability": "payable",
      "type": "function"
    },
    {
      "inputs": [],
      "name": "minimumInicialDeposit",
      "outputs": [
        {
          "internalType": "uint256",
          "name": "",
          "type": "uint256"
        }
      ],
      "stateMutability": "view",
      "type": "function"
    },
    {
      "inputs": [],
      "name": "viewClientsCount",
      "outputs": [
        {
          "internalType": "uint256",
          "name": "",
          "type": "uint256"
        }
      ],
      "stateMutability": "view",
      "type": "function"
    },
    {
      "inputs": [],
      "name": "viewcontractBalance",
      "outputs": [
        {
          "internalType": "uint256",
          "name": "",
          "type": "uint256"
        }
      ],
      "stateMutability": "view",
      "type": "function"
    },
    {
      "inputs": [
        {
          "internalType": "uint256",
          "name": "_amount",
          "type": "uint256"
        }
      ],
      "name": "withdrawFunds",
      "outputs": [
        {
          "internalType": "uint256",
          "name": "",
          "type": "uint256"
        }
      ],
      "stateMutability": "payable",
      "type": "function"
    }
  ],
  "bytecode": "0x608060405234801561001057600080fd5b50336000806101000a81548173ffffffffffffffffffffffffffffffffffffffff021916908373ffffffffffffffffffffffffffffffffffffffff160217905550678ac7230489e800006003819055506000600281905550611256806100776000396000f3fe6080604052600436106100915760003560e01c806377e3e1451161005957806377e3e145146101585780638353fc4f14610183578063d35dad96146101ac578063e089025f146101d7578063e2c41dbc1461020257610091565b80630a5f788614610096578063155dd5ee146100c15780631bc0beb6146100f157806362d0b7d11461011c5780636dd22fc61461013a575b600080fd5b3480156100a257600080fd5b506100ab61020c565b6040516100b89190610d8e565b60405180910390f35b6100db60048036038101906100d69190610de4565b610230565b6040516100e89190610e20565b60405180910390f35b3480156100fd57600080fd5b50610106610482565b6040516101139190610e20565b60405180910390f35b61012461059c565b6040516101319190610e56565b60405180910390f35b610142610765565b60405161014f9190610e56565b60405180910390f35b34801561016457600080fd5b5061016d6109cf565b60405161017a9190610e20565b60405180910390f35b34801561018f57600080fd5b506101aa60048036038101906101a59190610de4565b610a65565b005b3480156101b857600080fd5b506101c1610b49565b6040516101ce9190610e20565b60405180910390f35b3480156101e357600080fd5b506101ec610be1565b6040516101f99190610e20565b60405180910390f35b61020a610be7565b005b60008054906101000a900473ffffffffffffffffffffffffffffffffffffffff1681565b60003373ffffffffffffffffffffffffffffffffffffffff16600460003373ffffffffffffffffffffffffffffffffffffffff1673ffffffffffffffffffffffffffffffffffffffff16815260200190815260200160002060000160009054906101000a900473ffffffffffffffffffffffffffffffffffffffff1673ffffffffffffffffffffffffffffffffffffffff1614610302576040517f08c379a00000000000000000000000000000000000000000000000000000000081526004016102f990610ece565b60405180910390fd5b600033905082600460003373ffffffffffffffffffffffffffffffffffffffff1673ffffffffffffffffffffffffffffffffffffffff16815260200190815260200160002060010154101561035657600080fd5b82600460003373ffffffffffffffffffffffffffffffffffffffff1673ffffffffffffffffffffffffffffffffffffffff16815260200190815260200160002060010160008282546103a89190610f1d565b925050819055508073ffffffffffffffffffffffffffffffffffffffff166108fc849081150290604051600060405180830381858888f193505050501580156103f5573d6000803e3d6000fd5b506000600460003373ffffffffffffffffffffffffffffffffffffffff1673ffffffffffffffffffffffffffffffffffffffff1681526020019081526020016000206001015490507fbc5b330bc346550815d7b56f3181c49e450267f092e0be3daa65b426530265af33344260405161047093929190610f72565b60405180910390a18092505050919050565b60003373ffffffffffffffffffffffffffffffffffffffff16600460003373ffffffffffffffffffffffffffffffffffffffff1673ffffffffffffffffffffffffffffffffffffffff16815260200190815260200160002060000160009054906101000a900473ffffffffffffffffffffffffffffffffffffffff1673ffffffffffffffffffffffffffffffffffffffff1614610554576040517f08c379a000000000000000000000000000000000000000000000000000000000815260040161054b9061101b565b60405180910390fd5b600460003373ffffffffffffffffffffffffffffffffffffffff1673ffffffffffffffffffffffffffffffffffffffff16815260200190815260200160002060010154905090565b60006003543410156105e3576040517f08c379a00000000000000000000000000000000000000000000000000000000081526004016105da90611087565b60405180910390fd5b600260008154809291906105f6906110a7565b9190505550346001600082825461060d91906110ef565b9250508190555033600460003373ffffffffffffffffffffffffffffffffffffffff1673ffffffffffffffffffffffffffffffffffffffff16815260200190815260200160002060000160006101000a81548173ffffffffffffffffffffffffffffffffffffffff021916908373ffffffffffffffffffffffffffffffffffffffff16021790555034600460003373ffffffffffffffffffffffffffffffffffffffff1673ffffffffffffffffffffffffffffffffffffffff1681526020019081526020016000206001018190555042600460003373ffffffffffffffffffffffffffffffffffffffff1673ffffffffffffffffffffffffffffffffffffffff168152602001908152602001600020600201819055507f95ced1744aeb4bcb0c4b62a271824c9b9784ce5380b56bc0f66e14b2ce44725633344260405161075693929190610f72565b60405180910390a16001905090565b60003373ffffffffffffffffffffffffffffffffffffffff16600460003373ffffffffffffffffffffffffffffffffffffffff1673ffffffffffffffffffffffffffffffffffffffff16815260200190815260200160002060000160009054906101000a900473ffffffffffffffffffffffffffffffffffffffff1673ffffffffffffffffffffffffffffffffffffffff1614610837576040517f08c379a000000000000000000000000000000000000000000000000000000000815260040161082e90610ece565b60405180910390fd5b60003390506000600460003373ffffffffffffffffffffffffffffffffffffffff1673ffffffffffffffffffffffffffffffffffffffff16815260200190815260200160002060010154101561088c57600080fd5b6000600460003373ffffffffffffffffffffffffffffffffffffffff1673ffffffffffffffffffffffffffffffffffffffff16815260200190815260200160002060010154905080600460003373ffffffffffffffffffffffffffffffffffffffff1673ffffffffffffffffffffffffffffffffffffffff16815260200190815260200160002060010160008282546109259190610f1d565b925050819055508173ffffffffffffffffffffffffffffffffffffffff166108fc829081150290604051600060405180830381858888f19350505050158015610972573d6000803e3d6000fd5b507f15f39a6091beda00c3bba9d7a8c7d1e5a10eed2fda33dbdc092da5a736dd6bd63334426040516109a693929190610f72565b60405180910390a1600260008154809291906109c190611123565b919050555060019250505090565b60003373ffffffffffffffffffffffffffffffffffffffff1660008054906101000a900473ffffffffffffffffffffffffffffffffffffffff1673ffffffffffffffffffffffffffffffffffffffff1614610a5f576040517f08c379a0000000000000000000000000000000000000000000000000000000008152600401610a56906111be565b60405180910390fd5b47905090565b3373ffffffffffffffffffffffffffffffffffffffff1660008054906101000a900473ffffffffffffffffffffffffffffffffffffffff1673ffffffffffffffffffffffffffffffffffffffff1614610af3576040517f08c379a0000000000000000000000000000000000000000000000000000000008152600401610aea906111be565b60405180910390fd5b670de0b6b3a764000081610b0791906111de565b6003819055507f55fa9c56eb152f03e9a00965685cdff0bf2c21f24906a2189d884784ed41ab7a600354604051610b3e9190610e20565b60405180910390a150565b60003373ffffffffffffffffffffffffffffffffffffffff1660008054906101000a900473ffffffffffffffffffffffffffffffffffffffff1673ffffffffffffffffffffffffffffffffffffffff1614610bd9576040517f08c379a0000000000000000000000000000000000000000000000000000000008152600401610bd0906111be565b60405180910390fd5b600254905090565b60035481565b3373ffffffffffffffffffffffffffffffffffffffff16600460003373ffffffffffffffffffffffffffffffffffffffff1673ffffffffffffffffffffffffffffffffffffffff16815260200190815260200160002060000160009054906101000a900473ffffffffffffffffffffffffffffffffffffffff1673ffffffffffffffffffffffffffffffffffffffff1614610cb7576040517f08c379a0000000000000000000000000000000000000000000000000000000008152600401610cae90610ece565b60405180910390fd5b34600460003373ffffffffffffffffffffffffffffffffffffffff1673ffffffffffffffffffffffffffffffffffffffff1681526020019081526020016000206001016000828254610d0991906110ef565b925050819055507fac14eddccc7f589bb98df7506295628deb5f9ec1e570c7b6386c8338e24e9e79333442604051610d4393929190610f72565b60405180910390a1565b600073ffffffffffffffffffffffffffffffffffffffff82169050919050565b6000610d7882610d4d565b9050919050565b610d8881610d6d565b82525050565b6000602082019050610da36000830184610d7f565b92915050565b600080fd5b6000819050919050565b610dc181610dae565b8114610dcc57600080fd5b50565b600081359050610dde81610db8565b92915050565b600060208284031215610dfa57610df9610da9565b5b6000610e0884828501610dcf565b91505092915050565b610e1a81610dae565b82525050565b6000602082019050610e356000830184610e11565b92915050565b60008115159050919050565b610e5081610e3b565b82525050565b6000602082019050610e6b6000830184610e47565b92915050565b600082825260208201905092915050565b7f74686973206163636f756e7420646f6e27742065786973747300000000000000600082015250565b6000610eb8601983610e71565b9150610ec382610e82565b602082019050919050565b60006020820190508181036000830152610ee781610eab565b9050919050565b7f4e487b7100000000000000000000000000000000000000000000000000000000600052601160045260246000fd5b6000610f2882610dae565b9150610f3383610dae565b9250828203905081811115610f4b57610f4a610eee565b5b92915050565b6000610f5c82610d4d565b9050919050565b610f6c81610f51565b82525050565b6000606082019050610f876000830186610f63565b610f946020830185610e11565b610fa16040830184610e11565b949350505050565b7f6f6e6c7920746865206f776e6572206f6620746865206163636f756e7420636160008201527f6e20636865636b207468652062616c616e636500000000000000000000000000602082015250565b6000611005603383610e71565b915061101082610fa9565b604082019050919050565b6000602082019050818103600083015261103481610ff8565b9050919050565b7f446f65736e277420666f6c6c6f77206d696e696d756d20637269746572696100600082015250565b6000611071601f83610e71565b915061107c8261103b565b602082019050919050565b600060208201905081810360008301526110a081611064565b9050919050565b60006110b282610dae565b91507fffffffffffffffffffffffffffffffffffffffffffffffffffffffffffffffff82036110e4576110e3610eee565b5b600182019050919050565b60006110fa82610dae565b915061110583610dae565b925082820190508082111561111d5761111c610eee565b5b92915050565b600061112e82610dae565b91506000820361114157611140610eee565b5b600182039050919050565b7f4f6e6c79207468652062616e6b206d616e616765722063616e20706572666f7260008201527f6d207468697320616374696f6e2e000000000000000000000000000000000000602082015250565b60006111a8602e83610e71565b91506111b38261114c565b604082019050919050565b600060208201905081810360008301526111d78161119b565b9050919050565b60006111e982610dae565b91506111f483610dae565b925082820261120281610dae565b9150828204841483151761121957611218610eee565b5b509291505056fea26469706673582212209dc27d466b0f4bef4004a834ba3ecb5a2307a26aec9707998e61417ec432432764736f6c63430008110033",
  "linkReferences": {},
  "deployedLinkReferences": {}
}