{"contracts/DelegatesTest.sol":{"TargetContractDelegate":{"abi":[{"inputs":[],"name":"getValues","outputs":[{"internalType":"string","name":"","type":"string"},{"internalType":"address","name":"","type":"address"},{"internalType":"uint256","name":"","type":"uint256"}],"stateMutability":"view","type":"function"},{"inputs":[],"name":"name","outputs":[{"internalType":"string","name":"","type":"string"}],"stateMutability":"view","type":"function"},{"inputs":[],"name":"sender","outputs":[{"internalType":"address","name":"","type":"address"}],"stateMutability":"view","type":"function"},{"inputs":[{"internalType":"string","name":"_nameTarget","type":"string"}],"name":"targetFunction","outputs":[],"stateMutability":"payable","type":"function"},{"inputs":[],"name":"value","outputs":[{"internalType":"uint256","name":"","type":"uint256"}],"stateMutability":"view","type":"function"}],"evm":{"bytecode":{"linkReferences":{},"object":"608060405234801561001057600080fd5b50610918806100206000396000f3fe60806040526004361061004a5760003560e01c806306fdde031461004f57806319eb4a901461007a57806336c80bf5146100a75780633fa4f245146100c357806367e404ce146100ee575b600080fd5b34801561005b57600080fd5b50610064610119565b6040516100719190610382565b60405180910390f35b34801561008657600080fd5b5061008f6101a7565b60405161009e939291906103fe565b60405180910390f35b6100c160048036038101906100bc9190610585565b61026b565b005b3480156100cf57600080fd5b506100d86102c6565b6040516100e591906105ce565b60405180910390f35b3480156100fa57600080fd5b506101036102cc565b60405161011091906105e9565b60405180910390f35b6002805461012690610633565b80601f016020809104026020016040519081016040528092919081815260200182805461015290610633565b801561019f5780601f106101745761010080835404028352916020019161019f565b820191906000526020600020905b81548152906001019060200180831161018257829003601f168201915b505050505081565b60606000806002600160009054906101000a900473ffffffffffffffffffffffffffffffffffffffff166000548280546101e090610633565b80601f016020809104026020016040519081016040528092919081815260200182805461020c90610633565b80156102595780601f1061022e57610100808354040283529160200191610259565b820191906000526020600020905b81548152906001019060200180831161023c57829003601f168201915b50505050509250925092509250909192565b3460008190555033600160006101000a81548173ffffffffffffffffffffffffffffffffffffffff021916908373ffffffffffffffffffffffffffffffffffffffff16021790555080600290816102c29190610810565b5050565b60005481565b600160009054906101000a900473ffffffffffffffffffffffffffffffffffffffff1681565b600081519050919050565b600082825260208201905092915050565b60005b8381101561032c578082015181840152602081019050610311565b60008484015250505050565b6000601f19601f8301169050919050565b6000610354826102f2565b61035e81856102fd565b935061036e81856020860161030e565b61037781610338565b840191505092915050565b6000602082019050818103600083015261039c8184610349565b905092915050565b600073ffffffffffffffffffffffffffffffffffffffff82169050919050565b60006103cf826103a4565b9050919050565b6103df816103c4565b82525050565b6000819050919050565b6103f8816103e5565b82525050565b600060608201905081810360008301526104188186610349565b905061042760208301856103d6565b61043460408301846103ef565b949350505050565b6000604051905090565b600080fd5b600080fd5b600080fd5b600080fd5b7f4e487b7100000000000000000000000000000000000000000000000000000000600052604160045260246000fd5b61049282610338565b810181811067ffffffffffffffff821117156104b1576104b061045a565b5b80604052505050565b60006104c461043c565b90506104d08282610489565b919050565b600067ffffffffffffffff8211156104f0576104ef61045a565b5b6104f982610338565b9050602081019050919050565b82818337600083830152505050565b6000610528610523846104d5565b6104ba565b90508281526020810184848401111561054457610543610455565b5b61054f848285610506565b509392505050565b600082601f83011261056c5761056b610450565b5b813561057c848260208601610515565b91505092915050565b60006020828403121561059b5761059a610446565b5b600082013567ffffffffffffffff8111156105b9576105b861044b565b5b6105c584828501610557565b91505092915050565b60006020820190506105e360008301846103ef565b92915050565b60006020820190506105fe60008301846103d6565b92915050565b7f4e487b7100000000000000000000000000000000000000000000000000000000600052602260045260246000fd5b6000600282049050600182168061064b57607f821691505b60208210810361065e5761065d610604565b5b50919050565b60008190508160005260206000209050919050565b60006020601f8301049050919050565b600082821b905092915050565b6000600883026106c67fffffffffffffffffffffffffffffffffffffffffffffffffffffffffffffffff82610689565b6106d08683610689565b95508019841693508086168417925050509392505050565b6000819050919050565b600061070d610708610703846103e5565b6106e8565b6103e5565b9050919050565b6000819050919050565b610727836106f2565b61073b61073382610714565b848454610696565b825550505050565b600090565b610750610743565b61075b81848461071e565b505050565b5b8181101561077f57610774600082610748565b600181019050610761565b5050565b601f8211156107c45761079581610664565b61079e84610679565b810160208510156107ad578190505b6107c16107b985610679565b830182610760565b50505b505050565b600082821c905092915050565b60006107e7600019846008026107c9565b1980831691505092915050565b600061080083836107d6565b9150826002028217905092915050565b610819826102f2565b67ffffffffffffffff8111156108325761083161045a565b5b61083c8254610633565b610847828285610783565b600060209050601f83116001811461087a5760008415610868578287015190505b61087285826107f4565b8655506108da565b601f19841661088886610664565b60005b828110156108b05784890151825560018201915060208501945060208101905061088b565b868310156108cd57848901516108c9601f8916826107d6565b8355505b6001600288020188555050505b50505050505056fea264697066735822122099b0bf853e75216ad3c0951eb16085e9241a291780f8c2c83779622a49ea150b64736f6c63430008110033","opcodes":"PUSH1 0x80 PUSH1 0x40 MSTORE CALLVALUE DUP1 ISZERO PUSH2 0x10 JUMPI PUSH1 0x0 DUP1 REVERT JUMPDEST POP PUSH2 0x918 DUP1 PUSH2 0x20 PUSH1 0x0 CODECOPY PUSH1 0x0 RETURN INVALID PUSH1 0x80 PUSH1 0x40 MSTORE PUSH1 0x4 CALLDATASIZE LT PUSH2 0x4A JUMPI PUSH1 0x0 CALLDATALOAD PUSH1 0xE0 SHR DUP1 PUSH4 0x6FDDE03 EQ PUSH2 0x4F JUMPI DUP1 PUSH4 0x19EB4A90 EQ PUSH2 0x7A JUMPI DUP1 PUSH4 0x36C80BF5 EQ PUSH2 0xA7 JUMPI DUP1 PUSH4 0x3FA4F245 EQ PUSH2 0xC3 JUMPI DUP1 PUSH4 0x67E404CE EQ PUSH2 0xEE JUMPI JUMPDEST PUSH1 0x0 DUP1 REVERT JUMPDEST CALLVALUE DUP1 ISZERO PUSH2 0x5B JUMPI PUSH1 0x0 DUP1 REVERT JUMPDEST POP PUSH2 0x64 PUSH2 0x119 JUMP JUMPDEST PUSH1 0x40 MLOAD PUSH2 0x71 SWAP2 SWAP1 PUSH2 0x382 JUMP JUMPDEST PUSH1 0x40 MLOAD DUP1 SWAP2 SUB SWAP1 RETURN JUMPDEST CALLVALUE DUP1 ISZERO PUSH2 0x86 JUMPI PUSH1 0x0 DUP1 REVERT JUMPDEST POP PUSH2 0x8F PUSH2 0x1A7 JUMP JUMPDEST PUSH1 0x40 MLOAD PUSH2 0x9E SWAP4 SWAP3 SWAP2 SWAP1 PUSH2 0x3FE JUMP JUMPDEST PUSH1 0x40 MLOAD DUP1 SWAP2 SUB SWAP1 RETURN JUMPDEST PUSH2 0xC1 PUSH1 0x4 DUP1 CALLDATASIZE SUB DUP2 ADD SWAP1 PUSH2 0xBC SWAP2 SWAP1 PUSH2 0x585 JUMP JUMPDEST PUSH2 0x26B JUMP JUMPDEST STOP JUMPDEST CALLVALUE DUP1 ISZERO PUSH2 0xCF JUMPI PUSH1 0x0 DUP1 REVERT JUMPDEST POP PUSH2 0xD8 PUSH2 0x2C6 JUMP JUMPDEST PUSH1 0x40 MLOAD PUSH2 0xE5 SWAP2 SWAP1 PUSH2 0x5CE JUMP JUMPDEST PUSH1 0x40 MLOAD DUP1 SWAP2 SUB SWAP1 RETURN JUMPDEST CALLVALUE DUP1 ISZERO PUSH2 0xFA JUMPI PUSH1 0x0 DUP1 REVERT JUMPDEST POP PUSH2 0x103 PUSH2 0x2CC JUMP JUMPDEST PUSH1 0x40 MLOAD PUSH2 0x110 SWAP2 SWAP1 PUSH2 0x5E9 JUMP JUMPDEST PUSH1 0x40 MLOAD DUP1 SWAP2 SUB SWAP1 RETURN JUMPDEST PUSH1 0x2 DUP1 SLOAD PUSH2 0x126 SWAP1 PUSH2 0x633 JUMP JUMPDEST DUP1 PUSH1 0x1F ADD PUSH1 0x20 DUP1 SWAP2 DIV MUL PUSH1 0x20 ADD PUSH1 0x40 MLOAD SWAP1 DUP2 ADD PUSH1 0x40 MSTORE DUP1 SWAP3 SWAP2 SWAP1 DUP2 DUP2 MSTORE PUSH1 0x20 ADD DUP3 DUP1 SLOAD PUSH2 0x152 SWAP1 PUSH2 0x633 JUMP JUMPDEST DUP1 ISZERO PUSH2 0x19F JUMPI DUP1 PUSH1 0x1F LT PUSH2 0x174 JUMPI PUSH2 0x100 DUP1 DUP4 SLOAD DIV MUL DUP4 MSTORE SWAP2 PUSH1 0x20 ADD SWAP2 PUSH2 0x19F JUMP JUMPDEST DUP3 ADD SWAP2 SWAP1 PUSH1 0x0 MSTORE PUSH1 0x20 PUSH1 0x0 KECCAK256 SWAP1 JUMPDEST DUP2 SLOAD DUP2 MSTORE SWAP1 PUSH1 0x1 ADD SWAP1 PUSH1 0x20 ADD DUP1 DUP4 GT PUSH2 0x182 JUMPI DUP3 SWAP1 SUB PUSH1 0x1F AND DUP3 ADD SWAP2 JUMPDEST POP POP POP POP POP DUP2 JUMP JUMPDEST PUSH1 0x60 PUSH1 0x0 DUP1 PUSH1 0x2 PUSH1 0x1 PUSH1 0x0 SWAP1 SLOAD SWAP1 PUSH2 0x100 EXP SWAP1 DIV PUSH20 0xFFFFFFFFFFFFFFFFFFFFFFFFFFFFFFFFFFFFFFFF AND PUSH1 0x0 SLOAD DUP3 DUP1 SLOAD PUSH2 0x1E0 SWAP1 PUSH2 0x633 JUMP JUMPDEST DUP1 PUSH1 0x1F ADD PUSH1 0x20 DUP1 SWAP2 DIV MUL PUSH1 0x20 ADD PUSH1 0x40 MLOAD SWAP1 DUP2 ADD PUSH1 0x40 MSTORE DUP1 SWAP3 SWAP2 SWAP1 DUP2 DUP2 MSTORE PUSH1 0x20 ADD DUP3 DUP1 SLOAD PUSH2 0x20C SWAP1 PUSH2 0x633 JUMP JUMPDEST DUP1 ISZERO PUSH2 0x259 JUMPI DUP1 PUSH1 0x1F LT PUSH2 0x22E JUMPI PUSH2 0x100 DUP1 DUP4 SLOAD DIV MUL DUP4 MSTORE SWAP2 PUSH1 0x20 ADD SWAP2 PUSH2 0x259 JUMP JUMPDEST DUP3 ADD SWAP2 SWAP1 PUSH1 0x0 MSTORE PUSH1 0x20 PUSH1 0x0 KECCAK256 SWAP1 JUMPDEST DUP2 SLOAD DUP2 MSTORE SWAP1 PUSH1 0x1 ADD SWAP1 PUSH1 0x20 ADD DUP1 DUP4 GT PUSH2 0x23C JUMPI DUP3 SWAP1 SUB PUSH1 0x1F AND DUP3 ADD SWAP2 JUMPDEST POP POP POP POP POP SWAP3 POP SWAP3 POP SWAP3 POP SWAP3 POP SWAP1 SWAP2 SWAP3 JUMP JUMPDEST CALLVALUE PUSH1 0x0 DUP2 SWAP1 SSTORE POP CALLER PUSH1 0x1 PUSH1 0x0 PUSH2 0x100 EXP DUP2 SLOAD DUP2 PUSH20 0xFFFFFFFFFFFFFFFFFFFFFFFFFFFFFFFFFFFFFFFF MUL NOT AND SWAP1 DUP4 PUSH20 0xFFFFFFFFFFFFFFFFFFFFFFFFFFFFFFFFFFFFFFFF AND MUL OR SWAP1 SSTORE POP DUP1 PUSH1 0x2 SWAP1 DUP2 PUSH2 0x2C2 SWAP2 SWAP1 PUSH2 0x810 JUMP JUMPDEST POP POP JUMP JUMPDEST PUSH1 0x0 SLOAD DUP2 JUMP JUMPDEST PUSH1 0x1 PUSH1 0x0 SWAP1 SLOAD SWAP1 PUSH2 0x100 EXP SWAP1 DIV PUSH20 0xFFFFFFFFFFFFFFFFFFFFFFFFFFFFFFFFFFFFFFFF AND DUP2 JUMP JUMPDEST PUSH1 0x0 DUP2 MLOAD SWAP1 POP SWAP2 SWAP1 POP JUMP JUMPDEST PUSH1 0x0 DUP3 DUP3 MSTORE PUSH1 0x20 DUP3 ADD SWAP1 POP SWAP3 SWAP2 POP POP JUMP JUMPDEST PUSH1 0x0 JUMPDEST DUP4 DUP2 LT ISZERO PUSH2 0x32C JUMPI DUP1 DUP3 ADD MLOAD DUP2 DUP5 ADD MSTORE PUSH1 0x20 DUP2 ADD SWAP1 POP PUSH2 0x311 JUMP JUMPDEST PUSH1 0x0 DUP5 DUP5 ADD MSTORE POP POP POP POP JUMP JUMPDEST PUSH1 0x0 PUSH1 0x1F NOT PUSH1 0x1F DUP4 ADD AND SWAP1 POP SWAP2 SWAP1 POP JUMP JUMPDEST PUSH1 0x0 PUSH2 0x354 DUP3 PUSH2 0x2F2 JUMP JUMPDEST PUSH2 0x35E DUP2 DUP6 PUSH2 0x2FD JUMP JUMPDEST SWAP4 POP PUSH2 0x36E DUP2 DUP6 PUSH1 0x20 DUP7 ADD PUSH2 0x30E JUMP JUMPDEST PUSH2 0x377 DUP2 PUSH2 0x338 JUMP JUMPDEST DUP5 ADD SWAP2 POP POP SWAP3 SWAP2 POP POP JUMP JUMPDEST PUSH1 0x0 PUSH1 0x20 DUP3 ADD SWAP1 POP DUP2 DUP2 SUB PUSH1 0x0 DUP4 ADD MSTORE PUSH2 0x39C DUP2 DUP5 PUSH2 0x349 JUMP JUMPDEST SWAP1 POP SWAP3 SWAP2 POP POP JUMP JUMPDEST PUSH1 0x0 PUSH20 0xFFFFFFFFFFFFFFFFFFFFFFFFFFFFFFFFFFFFFFFF DUP3 AND SWAP1 POP SWAP2 SWAP1 POP JUMP JUMPDEST PUSH1 0x0 PUSH2 0x3CF DUP3 PUSH2 0x3A4 JUMP JUMPDEST SWAP1 POP SWAP2 SWAP1 POP JUMP JUMPDEST PUSH2 0x3DF DUP2 PUSH2 0x3C4 JUMP JUMPDEST DUP3 MSTORE POP POP JUMP JUMPDEST PUSH1 0x0 DUP2 SWAP1 POP SWAP2 SWAP1 POP JUMP JUMPDEST PUSH2 0x3F8 DUP2 PUSH2 0x3E5 JUMP JUMPDEST DUP3 MSTORE POP POP JUMP JUMPDEST PUSH1 0x0 PUSH1 0x60 DUP3 ADD SWAP1 POP DUP2 DUP2 SUB PUSH1 0x0 DUP4 ADD MSTORE PUSH2 0x418 DUP2 DUP7 PUSH2 0x349 JUMP JUMPDEST SWAP1 POP PUSH2 0x427 PUSH1 0x20 DUP4 ADD DUP6 PUSH2 0x3D6 JUMP JUMPDEST PUSH2 0x434 PUSH1 0x40 DUP4 ADD DUP5 PUSH2 0x3EF JUMP JUMPDEST SWAP5 SWAP4 POP POP POP POP JUMP JUMPDEST PUSH1 0x0 PUSH1 0x40 MLOAD SWAP1 POP SWAP1 JUMP JUMPDEST PUSH1 0x0 DUP1 REVERT JUMPDEST PUSH1 0x0 DUP1 REVERT JUMPDEST PUSH1 0x0 DUP1 REVERT JUMPDEST PUSH1 0x0 DUP1 REVERT JUMPDEST PUSH32 0x4E487B7100000000000000000000000000000000000000000000000000000000 PUSH1 0x0 MSTORE PUSH1 0x41 PUSH1 0x4 MSTORE PUSH1 0x24 PUSH1 0x0 REVERT JUMPDEST PUSH2 0x492 DUP3 PUSH2 0x338 JUMP JUMPDEST DUP2 ADD DUP2 DUP2 LT PUSH8 0xFFFFFFFFFFFFFFFF DUP3 GT OR ISZERO PUSH2 0x4B1 JUMPI PUSH2 0x4B0 PUSH2 0x45A JUMP JUMPDEST JUMPDEST DUP1 PUSH1 0x40 MSTORE POP POP POP JUMP JUMPDEST PUSH1 0x0 PUSH2 0x4C4 PUSH2 0x43C JUMP JUMPDEST SWAP1 POP PUSH2 0x4D0 DUP3 DUP3 PUSH2 0x489 JUMP JUMPDEST SWAP2 SWAP1 POP JUMP JUMPDEST PUSH1 0x0 PUSH8 0xFFFFFFFFFFFFFFFF DUP3 GT ISZERO PUSH2 0x4F0 JUMPI PUSH2 0x4EF PUSH2 0x45A JUMP JUMPDEST JUMPDEST PUSH2 0x4F9 DUP3 PUSH2 0x338 JUMP JUMPDEST SWAP1 POP PUSH1 0x20 DUP2 ADD SWAP1 POP SWAP2 SWAP1 POP JUMP JUMPDEST DUP3 DUP2 DUP4 CALLDATACOPY PUSH1 0x0 DUP4 DUP4 ADD MSTORE POP POP POP JUMP JUMPDEST PUSH1 0x0 PUSH2 0x528 PUSH2 0x523 DUP5 PUSH2 0x4D5 JUMP JUMPDEST PUSH2 0x4BA JUMP JUMPDEST SWAP1 POP DUP3 DUP2 MSTORE PUSH1 0x20 DUP2 ADD DUP5 DUP5 DUP5 ADD GT ISZERO PUSH2 0x544 JUMPI PUSH2 0x543 PUSH2 0x455 JUMP JUMPDEST JUMPDEST PUSH2 0x54F DUP5 DUP3 DUP6 PUSH2 0x506 JUMP JUMPDEST POP SWAP4 SWAP3 POP POP POP JUMP JUMPDEST PUSH1 0x0 DUP3 PUSH1 0x1F DUP4 ADD SLT PUSH2 0x56C JUMPI PUSH2 0x56B PUSH2 0x450 JUMP JUMPDEST JUMPDEST DUP2 CALLDATALOAD PUSH2 0x57C DUP5 DUP3 PUSH1 0x20 DUP7 ADD PUSH2 0x515 JUMP JUMPDEST SWAP2 POP POP SWAP3 SWAP2 POP POP JUMP JUMPDEST PUSH1 0x0 PUSH1 0x20 DUP3 DUP5 SUB SLT ISZERO PUSH2 0x59B JUMPI PUSH2 0x59A PUSH2 0x446 JUMP JUMPDEST JUMPDEST PUSH1 0x0 DUP3 ADD CALLDATALOAD PUSH8 0xFFFFFFFFFFFFFFFF DUP2 GT ISZERO PUSH2 0x5B9 JUMPI PUSH2 0x5B8 PUSH2 0x44B JUMP JUMPDEST JUMPDEST PUSH2 0x5C5 DUP5 DUP3 DUP6 ADD PUSH2 0x557 JUMP JUMPDEST SWAP2 POP POP SWAP3 SWAP2 POP POP JUMP JUMPDEST PUSH1 0x0 PUSH1 0x20 DUP3 ADD SWAP1 POP PUSH2 0x5E3 PUSH1 0x0 DUP4 ADD DUP5 PUSH2 0x3EF JUMP JUMPDEST SWAP3 SWAP2 POP POP JUMP JUMPDEST PUSH1 0x0 PUSH1 0x20 DUP3 ADD SWAP1 POP PUSH2 0x5FE PUSH1 0x0 DUP4 ADD DUP5 PUSH2 0x3D6 JUMP JUMPDEST SWAP3 SWAP2 POP POP JUMP JUMPDEST PUSH32 0x4E487B7100000000000000000000000000000000000000000000000000000000 PUSH1 0x0 MSTORE PUSH1 0x22 PUSH1 0x4 MSTORE PUSH1 0x24 PUSH1 0x0 REVERT JUMPDEST PUSH1 0x0 PUSH1 0x2 DUP3 DIV SWAP1 POP PUSH1 0x1 DUP3 AND DUP1 PUSH2 0x64B JUMPI PUSH1 0x7F DUP3 AND SWAP2 POP JUMPDEST PUSH1 0x20 DUP3 LT DUP2 SUB PUSH2 0x65E JUMPI PUSH2 0x65D PUSH2 0x604 JUMP JUMPDEST JUMPDEST POP SWAP2 SWAP1 POP JUMP JUMPDEST PUSH1 0x0 DUP2 SWAP1 POP DUP2 PUSH1 0x0 MSTORE PUSH1 0x20 PUSH1 0x0 KECCAK256 SWAP1 POP SWAP2 SWAP1 POP JUMP JUMPDEST PUSH1 0x0 PUSH1 0x20 PUSH1 0x1F DUP4 ADD DIV SWAP1 POP SWAP2 SWAP1 POP JUMP JUMPDEST PUSH1 0x0 DUP3 DUP3 SHL SWAP1 POP SWAP3 SWAP2 POP POP JUMP JUMPDEST PUSH1 0x0 PUSH1 0x8 DUP4 MUL PUSH2 0x6C6 PUSH32 0xFFFFFFFFFFFFFFFFFFFFFFFFFFFFFFFFFFFFFFFFFFFFFFFFFFFFFFFFFFFFFFFF DUP3 PUSH2 0x689 JUMP JUMPDEST PUSH2 0x6D0 DUP7 DUP4 PUSH2 0x689 JUMP JUMPDEST SWAP6 POP DUP1 NOT DUP5 AND SWAP4 POP DUP1 DUP7 AND DUP5 OR SWAP3 POP POP POP SWAP4 SWAP3 POP POP POP JUMP JUMPDEST PUSH1 0x0 DUP2 SWAP1 POP SWAP2 SWAP1 POP JUMP JUMPDEST PUSH1 0x0 PUSH2 0x70D PUSH2 0x708 PUSH2 0x703 DUP5 PUSH2 0x3E5 JUMP JUMPDEST PUSH2 0x6E8 JUMP JUMPDEST PUSH2 0x3E5 JUMP JUMPDEST SWAP1 POP SWAP2 SWAP1 POP JUMP JUMPDEST PUSH1 0x0 DUP2 SWAP1 POP SWAP2 SWAP1 POP JUMP JUMPDEST PUSH2 0x727 DUP4 PUSH2 0x6F2 JUMP JUMPDEST PUSH2 0x73B PUSH2 0x733 DUP3 PUSH2 0x714 JUMP JUMPDEST DUP5 DUP5 SLOAD PUSH2 0x696 JUMP JUMPDEST DUP3 SSTORE POP POP POP POP JUMP JUMPDEST PUSH1 0x0 SWAP1 JUMP JUMPDEST PUSH2 0x750 PUSH2 0x743 JUMP JUMPDEST PUSH2 0x75B DUP2 DUP5 DUP5 PUSH2 0x71E JUMP JUMPDEST POP POP POP JUMP JUMPDEST JUMPDEST DUP2 DUP2 LT ISZERO PUSH2 0x77F JUMPI PUSH2 0x774 PUSH1 0x0 DUP3 PUSH2 0x748 JUMP JUMPDEST PUSH1 0x1 DUP2 ADD SWAP1 POP PUSH2 0x761 JUMP JUMPDEST POP POP JUMP JUMPDEST PUSH1 0x1F DUP3 GT ISZERO PUSH2 0x7C4 JUMPI PUSH2 0x795 DUP2 PUSH2 0x664 JUMP JUMPDEST PUSH2 0x79E DUP5 PUSH2 0x679 JUMP JUMPDEST DUP2 ADD PUSH1 0x20 DUP6 LT ISZERO PUSH2 0x7AD JUMPI DUP2 SWAP1 POP JUMPDEST PUSH2 0x7C1 PUSH2 0x7B9 DUP6 PUSH2 0x679 JUMP JUMPDEST DUP4 ADD DUP3 PUSH2 0x760 JUMP JUMPDEST POP POP JUMPDEST POP POP POP JUMP JUMPDEST PUSH1 0x0 DUP3 DUP3 SHR SWAP1 POP SWAP3 SWAP2 POP POP JUMP JUMPDEST PUSH1 0x0 PUSH2 0x7E7 PUSH1 0x0 NOT DUP5 PUSH1 0x8 MUL PUSH2 0x7C9 JUMP JUMPDEST NOT DUP1 DUP4 AND SWAP2 POP POP SWAP3 SWAP2 POP POP JUMP JUMPDEST PUSH1 0x0 PUSH2 0x800 DUP4 DUP4 PUSH2 0x7D6 JUMP JUMPDEST SWAP2 POP DUP3 PUSH1 0x2 MUL DUP3 OR SWAP1 POP SWAP3 SWAP2 POP POP JUMP JUMPDEST PUSH2 0x819 DUP3 PUSH2 0x2F2 JUMP JUMPDEST PUSH8 0xFFFFFFFFFFFFFFFF DUP2 GT ISZERO PUSH2 0x832 JUMPI PUSH2 0x831 PUSH2 0x45A JUMP JUMPDEST JUMPDEST PUSH2 0x83C DUP3 SLOAD PUSH2 0x633 JUMP JUMPDEST PUSH2 0x847 DUP3 DUP3 DUP6 PUSH2 0x783 JUMP JUMPDEST PUSH1 0x0 PUSH1 0x20 SWAP1 POP PUSH1 0x1F DUP4 GT PUSH1 0x1 DUP2 EQ PUSH2 0x87A JUMPI PUSH1 0x0 DUP5 ISZERO PUSH2 0x868 JUMPI DUP3 DUP8 ADD MLOAD SWAP1 POP JUMPDEST PUSH2 0x872 DUP6 DUP3 PUSH2 0x7F4 JUMP JUMPDEST DUP7 SSTORE POP PUSH2 0x8DA JUMP JUMPDEST PUSH1 0x1F NOT DUP5 AND PUSH2 0x888 DUP7 PUSH2 0x664 JUMP JUMPDEST PUSH1 0x0 JUMPDEST DUP3 DUP2 LT ISZERO PUSH2 0x8B0 JUMPI DUP5 DUP10 ADD MLOAD DUP3 SSTORE PUSH1 0x1 DUP3 ADD SWAP2 POP PUSH1 0x20 DUP6 ADD SWAP5 POP PUSH1 0x20 DUP2 ADD SWAP1 POP PUSH2 0x88B JUMP JUMPDEST DUP7 DUP4 LT ISZERO PUSH2 0x8CD JUMPI DUP5 DUP10 ADD MLOAD PUSH2 0x8C9 PUSH1 0x1F DUP10 AND DUP3 PUSH2 0x7D6 JUMP JUMPDEST DUP4 SSTORE POP JUMPDEST PUSH1 0x1 PUSH1 0x2 DUP9 MUL ADD DUP9 SSTORE POP POP POP JUMPDEST POP POP POP POP POP POP JUMP INVALID LOG2 PUSH5 0x6970667358 0x22 SLT KECCAK256 SWAP10 0xB0 0xBF DUP6 RETURNDATACOPY PUSH22 0x216AD3C0951EB16085E9241A291780F8C2C83779622A 0x49 0xEA ISZERO SIGNEXTEND PUSH5 0x736F6C6343 STOP ADDMOD GT STOP CALLER "},"methodIdentifiers":{"getValues()":"19eb4a90","name()":"06fdde03","sender()":"67e404ce","targetFunction(string)":"36c80bf5","value()":"3fa4f245"}}}}}