{"contracts/DelegatesTest.sol":{"CallerContract":{"abi":[{"inputs":[],"stateMutability":"payable","type":"constructor"},{"inputs":[],"name":"name","outputs":[{"internalType":"string","name":"","type":"string"}],"stateMutability":"view","type":"function"},{"inputs":[],"name":"sender","outputs":[{"internalType":"address","name":"","type":"address"}],"stateMutability":"view","type":"function"},{"inputs":[{"internalType":"string","name":"_name","type":"string"},{"internalType":"contract TargetContractDelegate","name":"tc","type":"address"}],"name":"testDelegateCall","outputs":[],"stateMutability":"payable","type":"function"},{"inputs":[],"name":"value","outputs":[{"internalType":"uint256","name":"","type":"uint256"}],"stateMutability":"view","type":"function"}],"evm":{"bytecode":{"linkReferences":{},"object":"60806040526109dc806100136000396000f3fe60806040526004361061003f5760003560e01c806306fdde03146100445780633fa4f2451461006f57806367e404ce1461009a578063a1404ddb146100c5575b600080fd5b34801561005057600080fd5b506100596100e1565b6040516100669190610369565b60405180910390f35b34801561007b57600080fd5b5061008461016f565b60405161009191906103a4565b60405180910390f35b3480156100a657600080fd5b506100af610175565b6040516100bc9190610400565b60405180910390f35b6100df60048036038101906100da91906105a2565b61019b565b005b600280546100ee9061062d565b80601f016020809104026020016040519081016040528092919081815260200182805461011a9061062d565b80156101675780601f1061013c57610100808354040283529160200191610167565b820191906000526020600020905b81548152906001019060200180831161014a57829003601f168201915b505050505081565b60005481565b600160009054906101000a900473ffffffffffffffffffffffffffffffffffffffff1681565b3460008190555033600160006101000a81548173ffffffffffffffffffffffffffffffffffffffff021916908373ffffffffffffffffffffffffffffffffffffffff16021790555081600290816101f2919061080a565b506000808273ffffffffffffffffffffffffffffffffffffffff166336c80bf560e01b60405160240161022490610928565b604051602081830303815290604052907bffffffffffffffffffffffffffffffffffffffffffffffffffffffff19166020820180517bffffffffffffffffffffffffffffffffffffffffffffffffffffffff838183161783525050505060405161028e919061098f565b600060405180830381855af49150503d80600081146102c9576040519150601f19603f3d011682016040523d82523d6000602084013e6102ce565b606091505b509150915050505050565b600081519050919050565b600082825260208201905092915050565b60005b838110156103135780820151818401526020810190506102f8565b60008484015250505050565b6000601f19601f8301169050919050565b600061033b826102d9565b61034581856102e4565b93506103558185602086016102f5565b61035e8161031f565b840191505092915050565b600060208201905081810360008301526103838184610330565b905092915050565b6000819050919050565b61039e8161038b565b82525050565b60006020820190506103b96000830184610395565b92915050565b600073ffffffffffffffffffffffffffffffffffffffff82169050919050565b60006103ea826103bf565b9050919050565b6103fa816103df565b82525050565b600060208201905061041560008301846103f1565b92915050565b6000604051905090565b600080fd5b600080fd5b600080fd5b600080fd5b7f4e487b7100000000000000000000000000000000000000000000000000000000600052604160045260246000fd5b6104718261031f565b810181811067ffffffffffffffff821117156104905761048f610439565b5b80604052505050565b60006104a361041b565b90506104af8282610468565b919050565b600067ffffffffffffffff8211156104cf576104ce610439565b5b6104d88261031f565b9050602081019050919050565b82818337600083830152505050565b6000610507610502846104b4565b610499565b90508281526020810184848401111561052357610522610434565b5b61052e8482856104e5565b509392505050565b600082601f83011261054b5761054a61042f565b5b813561055b8482602086016104f4565b91505092915050565b600061056f826103df565b9050919050565b61057f81610564565b811461058a57600080fd5b50565b60008135905061059c81610576565b92915050565b600080604083850312156105b9576105b8610425565b5b600083013567ffffffffffffffff8111156105d7576105d661042a565b5b6105e385828601610536565b92505060206105f48582860161058d565b9150509250929050565b7f4e487b7100000000000000000000000000000000000000000000000000000000600052602260045260246000fd5b6000600282049050600182168061064557607f821691505b602082108103610658576106576105fe565b5b50919050565b60008190508160005260206000209050919050565b60006020601f8301049050919050565b600082821b905092915050565b6000600883026106c07fffffffffffffffffffffffffffffffffffffffffffffffffffffffffffffffff82610683565b6106ca8683610683565b95508019841693508086168417925050509392505050565b6000819050919050565b60006107076107026106fd8461038b565b6106e2565b61038b565b9050919050565b6000819050919050565b610721836106ec565b61073561072d8261070e565b848454610690565b825550505050565b600090565b61074a61073d565b610755818484610718565b505050565b5b818110156107795761076e600082610742565b60018101905061075b565b5050565b601f8211156107be5761078f8161065e565b61079884610673565b810160208510156107a7578190505b6107bb6107b385610673565b83018261075a565b50505b505050565b600082821c905092915050565b60006107e1600019846008026107c3565b1980831691505092915050565b60006107fa83836107d0565b9150826002028217905092915050565b610813826102d9565b67ffffffffffffffff81111561082c5761082b610439565b5b610836825461062d565b61084182828561077d565b600060209050601f8311600181146108745760008415610862578287015190505b61086c85826107ee565b8655506108d4565b601f1984166108828661065e565b60005b828110156108aa57848901518255600182019150602085019450602081019050610885565b868310156108c757848901516108c3601f8916826107d0565b8355505b6001600288020188555050505b505050505050565b7f536f6d65204e616d650000000000000000000000000000000000000000000000600082015250565b60006109126009836102e4565b915061091d826108dc565b602082019050919050565b6000602082019050818103600083015261094181610905565b9050919050565b600081519050919050565b600081905092915050565b600061096982610948565b6109738185610953565b93506109838185602086016102f5565b80840191505092915050565b600061099b828461095e565b91508190509291505056fea26469706673582212209f5d9c030bdcf16fc9e083805436bd505f7e39e8f4d8804a32411438fe74a1ab64736f6c63430008110033","opcodes":"PUSH1 0x80 PUSH1 0x40 MSTORE PUSH2 0x9DC DUP1 PUSH2 0x13 PUSH1 0x0 CODECOPY PUSH1 0x0 RETURN INVALID PUSH1 0x80 PUSH1 0x40 MSTORE PUSH1 0x4 CALLDATASIZE LT PUSH2 0x3F JUMPI PUSH1 0x0 CALLDATALOAD PUSH1 0xE0 SHR DUP1 PUSH4 0x6FDDE03 EQ PUSH2 0x44 JUMPI DUP1 PUSH4 0x3FA4F245 EQ PUSH2 0x6F JUMPI DUP1 PUSH4 0x67E404CE EQ PUSH2 0x9A JUMPI DUP1 PUSH4 0xA1404DDB EQ PUSH2 0xC5 JUMPI JUMPDEST PUSH1 0x0 DUP1 REVERT JUMPDEST CALLVALUE DUP1 ISZERO PUSH2 0x50 JUMPI PUSH1 0x0 DUP1 REVERT JUMPDEST POP PUSH2 0x59 PUSH2 0xE1 JUMP JUMPDEST PUSH1 0x40 MLOAD PUSH2 0x66 SWAP2 SWAP1 PUSH2 0x369 JUMP JUMPDEST PUSH1 0x40 MLOAD DUP1 SWAP2 SUB SWAP1 RETURN JUMPDEST CALLVALUE DUP1 ISZERO PUSH2 0x7B JUMPI PUSH1 0x0 DUP1 REVERT JUMPDEST POP PUSH2 0x84 PUSH2 0x16F JUMP JUMPDEST PUSH1 0x40 MLOAD PUSH2 0x91 SWAP2 SWAP1 PUSH2 0x3A4 JUMP JUMPDEST PUSH1 0x40 MLOAD DUP1 SWAP2 SUB SWAP1 RETURN JUMPDEST CALLVALUE DUP1 ISZERO PUSH2 0xA6 JUMPI PUSH1 0x0 DUP1 REVERT JUMPDEST POP PUSH2 0xAF PUSH2 0x175 JUMP JUMPDEST PUSH1 0x40 MLOAD PUSH2 0xBC SWAP2 SWAP1 PUSH2 0x400 JUMP JUMPDEST PUSH1 0x40 MLOAD DUP1 SWAP2 SUB SWAP1 RETURN JUMPDEST PUSH2 0xDF PUSH1 0x4 DUP1 CALLDATASIZE SUB DUP2 ADD SWAP1 PUSH2 0xDA SWAP2 SWAP1 PUSH2 0x5A2 JUMP JUMPDEST PUSH2 0x19B JUMP JUMPDEST STOP JUMPDEST PUSH1 0x2 DUP1 SLOAD PUSH2 0xEE SWAP1 PUSH2 0x62D JUMP JUMPDEST DUP1 PUSH1 0x1F ADD PUSH1 0x20 DUP1 SWAP2 DIV MUL PUSH1 0x20 ADD PUSH1 0x40 MLOAD SWAP1 DUP2 ADD PUSH1 0x40 MSTORE DUP1 SWAP3 SWAP2 SWAP1 DUP2 DUP2 MSTORE PUSH1 0x20 ADD DUP3 DUP1 SLOAD PUSH2 0x11A SWAP1 PUSH2 0x62D JUMP JUMPDEST DUP1 ISZERO PUSH2 0x167 JUMPI DUP1 PUSH1 0x1F LT PUSH2 0x13C JUMPI PUSH2 0x100 DUP1 DUP4 SLOAD DIV MUL DUP4 MSTORE SWAP2 PUSH1 0x20 ADD SWAP2 PUSH2 0x167 JUMP JUMPDEST DUP3 ADD SWAP2 SWAP1 PUSH1 0x0 MSTORE PUSH1 0x20 PUSH1 0x0 KECCAK256 SWAP1 JUMPDEST DUP2 SLOAD DUP2 MSTORE SWAP1 PUSH1 0x1 ADD SWAP1 PUSH1 0x20 ADD DUP1 DUP4 GT PUSH2 0x14A JUMPI DUP3 SWAP1 SUB PUSH1 0x1F AND DUP3 ADD SWAP2 JUMPDEST POP POP POP POP POP DUP2 JUMP JUMPDEST PUSH1 0x0 SLOAD DUP2 JUMP JUMPDEST PUSH1 0x1 PUSH1 0x0 SWAP1 SLOAD SWAP1 PUSH2 0x100 EXP SWAP1 DIV PUSH20 0xFFFFFFFFFFFFFFFFFFFFFFFFFFFFFFFFFFFFFFFF AND DUP2 JUMP JUMPDEST CALLVALUE PUSH1 0x0 DUP2 SWAP1 SSTORE POP CALLER PUSH1 0x1 PUSH1 0x0 PUSH2 0x100 EXP DUP2 SLOAD DUP2 PUSH20 0xFFFFFFFFFFFFFFFFFFFFFFFFFFFFFFFFFFFFFFFF MUL NOT AND SWAP1 DUP4 PUSH20 0xFFFFFFFFFFFFFFFFFFFFFFFFFFFFFFFFFFFFFFFF AND MUL OR SWAP1 SSTORE POP DUP2 PUSH1 0x2 SWAP1 DUP2 PUSH2 0x1F2 SWAP2 SWAP1 PUSH2 0x80A JUMP JUMPDEST POP PUSH1 0x0 DUP1 DUP3 PUSH20 0xFFFFFFFFFFFFFFFFFFFFFFFFFFFFFFFFFFFFFFFF AND PUSH4 0x36C80BF5 PUSH1 0xE0 SHL PUSH1 0x40 MLOAD PUSH1 0x24 ADD PUSH2 0x224 SWAP1 PUSH2 0x928 JUMP JUMPDEST PUSH1 0x40 MLOAD PUSH1 0x20 DUP2 DUP4 SUB SUB DUP2 MSTORE SWAP1 PUSH1 0x40 MSTORE SWAP1 PUSH28 0xFFFFFFFFFFFFFFFFFFFFFFFFFFFFFFFFFFFFFFFFFFFFFFFFFFFFFFFF NOT AND PUSH1 0x20 DUP3 ADD DUP1 MLOAD PUSH28 0xFFFFFFFFFFFFFFFFFFFFFFFFFFFFFFFFFFFFFFFFFFFFFFFFFFFFFFFF DUP4 DUP2 DUP4 AND OR DUP4 MSTORE POP POP POP POP PUSH1 0x40 MLOAD PUSH2 0x28E SWAP2 SWAP1 PUSH2 0x98F JUMP JUMPDEST PUSH1 0x0 PUSH1 0x40 MLOAD DUP1 DUP4 SUB DUP2 DUP6 GAS DELEGATECALL SWAP2 POP POP RETURNDATASIZE DUP1 PUSH1 0x0 DUP2 EQ PUSH2 0x2C9 JUMPI PUSH1 0x40 MLOAD SWAP2 POP PUSH1 0x1F NOT PUSH1 0x3F RETURNDATASIZE ADD AND DUP3 ADD PUSH1 0x40 MSTORE RETURNDATASIZE DUP3 MSTORE RETURNDATASIZE PUSH1 0x0 PUSH1 0x20 DUP5 ADD RETURNDATACOPY PUSH2 0x2CE JUMP JUMPDEST PUSH1 0x60 SWAP2 POP JUMPDEST POP SWAP2 POP SWAP2 POP POP POP POP POP JUMP JUMPDEST PUSH1 0x0 DUP2 MLOAD SWAP1 POP SWAP2 SWAP1 POP JUMP JUMPDEST PUSH1 0x0 DUP3 DUP3 MSTORE PUSH1 0x20 DUP3 ADD SWAP1 POP SWAP3 SWAP2 POP POP JUMP JUMPDEST PUSH1 0x0 JUMPDEST DUP4 DUP2 LT ISZERO PUSH2 0x313 JUMPI DUP1 DUP3 ADD MLOAD DUP2 DUP5 ADD MSTORE PUSH1 0x20 DUP2 ADD SWAP1 POP PUSH2 0x2F8 JUMP JUMPDEST PUSH1 0x0 DUP5 DUP5 ADD MSTORE POP POP POP POP JUMP JUMPDEST PUSH1 0x0 PUSH1 0x1F NOT PUSH1 0x1F DUP4 ADD AND SWAP1 POP SWAP2 SWAP1 POP JUMP JUMPDEST PUSH1 0x0 PUSH2 0x33B DUP3 PUSH2 0x2D9 JUMP JUMPDEST PUSH2 0x345 DUP2 DUP6 PUSH2 0x2E4 JUMP JUMPDEST SWAP4 POP PUSH2 0x355 DUP2 DUP6 PUSH1 0x20 DUP7 ADD PUSH2 0x2F5 JUMP JUMPDEST PUSH2 0x35E DUP2 PUSH2 0x31F JUMP JUMPDEST DUP5 ADD SWAP2 POP POP SWAP3 SWAP2 POP POP JUMP JUMPDEST PUSH1 0x0 PUSH1 0x20 DUP3 ADD SWAP1 POP DUP2 DUP2 SUB PUSH1 0x0 DUP4 ADD MSTORE PUSH2 0x383 DUP2 DUP5 PUSH2 0x330 JUMP JUMPDEST SWAP1 POP SWAP3 SWAP2 POP POP JUMP JUMPDEST PUSH1 0x0 DUP2 SWAP1 POP SWAP2 SWAP1 POP JUMP JUMPDEST PUSH2 0x39E DUP2 PUSH2 0x38B JUMP JUMPDEST DUP3 MSTORE POP POP JUMP JUMPDEST PUSH1 0x0 PUSH1 0x20 DUP3 ADD SWAP1 POP PUSH2 0x3B9 PUSH1 0x0 DUP4 ADD DUP5 PUSH2 0x395 JUMP JUMPDEST SWAP3 SWAP2 POP POP JUMP JUMPDEST PUSH1 0x0 PUSH20 0xFFFFFFFFFFFFFFFFFFFFFFFFFFFFFFFFFFFFFFFF DUP3 AND SWAP1 POP SWAP2 SWAP1 POP JUMP JUMPDEST PUSH1 0x0 PUSH2 0x3EA DUP3 PUSH2 0x3BF JUMP JUMPDEST SWAP1 POP SWAP2 SWAP1 POP JUMP JUMPDEST PUSH2 0x3FA DUP2 PUSH2 0x3DF JUMP JUMPDEST DUP3 MSTORE POP POP JUMP JUMPDEST PUSH1 0x0 PUSH1 0x20 DUP3 ADD SWAP1 POP PUSH2 0x415 PUSH1 0x0 DUP4 ADD DUP5 PUSH2 0x3F1 JUMP JUMPDEST SWAP3 SWAP2 POP POP JUMP JUMPDEST PUSH1 0x0 PUSH1 0x40 MLOAD SWAP1 POP SWAP1 JUMP JUMPDEST PUSH1 0x0 DUP1 REVERT JUMPDEST PUSH1 0x0 DUP1 REVERT JUMPDEST PUSH1 0x0 DUP1 REVERT JUMPDEST PUSH1 0x0 DUP1 REVERT JUMPDEST PUSH32 0x4E487B7100000000000000000000000000000000000000000000000000000000 PUSH1 0x0 MSTORE PUSH1 0x41 PUSH1 0x4 MSTORE PUSH1 0x24 PUSH1 0x0 REVERT JUMPDEST PUSH2 0x471 DUP3 PUSH2 0x31F JUMP JUMPDEST DUP2 ADD DUP2 DUP2 LT PUSH8 0xFFFFFFFFFFFFFFFF DUP3 GT OR ISZERO PUSH2 0x490 JUMPI PUSH2 0x48F PUSH2 0x439 JUMP JUMPDEST JUMPDEST DUP1 PUSH1 0x40 MSTORE POP POP POP JUMP JUMPDEST PUSH1 0x0 PUSH2 0x4A3 PUSH2 0x41B JUMP JUMPDEST SWAP1 POP PUSH2 0x4AF DUP3 DUP3 PUSH2 0x468 JUMP JUMPDEST SWAP2 SWAP1 POP JUMP JUMPDEST PUSH1 0x0 PUSH8 0xFFFFFFFFFFFFFFFF DUP3 GT ISZERO PUSH2 0x4CF JUMPI PUSH2 0x4CE PUSH2 0x439 JUMP JUMPDEST JUMPDEST PUSH2 0x4D8 DUP3 PUSH2 0x31F JUMP JUMPDEST SWAP1 POP PUSH1 0x20 DUP2 ADD SWAP1 POP SWAP2 SWAP1 POP JUMP JUMPDEST DUP3 DUP2 DUP4 CALLDATACOPY PUSH1 0x0 DUP4 DUP4 ADD MSTORE POP POP POP JUMP JUMPDEST PUSH1 0x0 PUSH2 0x507 PUSH2 0x502 DUP5 PUSH2 0x4B4 JUMP JUMPDEST PUSH2 0x499 JUMP JUMPDEST SWAP1 POP DUP3 DUP2 MSTORE PUSH1 0x20 DUP2 ADD DUP5 DUP5 DUP5 ADD GT ISZERO PUSH2 0x523 JUMPI PUSH2 0x522 PUSH2 0x434 JUMP JUMPDEST JUMPDEST PUSH2 0x52E DUP5 DUP3 DUP6 PUSH2 0x4E5 JUMP JUMPDEST POP SWAP4 SWAP3 POP POP POP JUMP JUMPDEST PUSH1 0x0 DUP3 PUSH1 0x1F DUP4 ADD SLT PUSH2 0x54B JUMPI PUSH2 0x54A PUSH2 0x42F JUMP JUMPDEST JUMPDEST DUP2 CALLDATALOAD PUSH2 0x55B DUP5 DUP3 PUSH1 0x20 DUP7 ADD PUSH2 0x4F4 JUMP JUMPDEST SWAP2 POP POP SWAP3 SWAP2 POP POP JUMP JUMPDEST PUSH1 0x0 PUSH2 0x56F DUP3 PUSH2 0x3DF JUMP JUMPDEST SWAP1 POP SWAP2 SWAP1 POP JUMP JUMPDEST PUSH2 0x57F DUP2 PUSH2 0x564 JUMP JUMPDEST DUP2 EQ PUSH2 0x58A JUMPI PUSH1 0x0 DUP1 REVERT JUMPDEST POP JUMP JUMPDEST PUSH1 0x0 DUP2 CALLDATALOAD SWAP1 POP PUSH2 0x59C DUP2 PUSH2 0x576 JUMP JUMPDEST SWAP3 SWAP2 POP POP JUMP JUMPDEST PUSH1 0x0 DUP1 PUSH1 0x40 DUP4 DUP6 SUB SLT ISZERO PUSH2 0x5B9 JUMPI PUSH2 0x5B8 PUSH2 0x425 JUMP JUMPDEST JUMPDEST PUSH1 0x0 DUP4 ADD CALLDATALOAD PUSH8 0xFFFFFFFFFFFFFFFF DUP2 GT ISZERO PUSH2 0x5D7 JUMPI PUSH2 0x5D6 PUSH2 0x42A JUMP JUMPDEST JUMPDEST PUSH2 0x5E3 DUP6 DUP3 DUP7 ADD PUSH2 0x536 JUMP JUMPDEST SWAP3 POP POP PUSH1 0x20 PUSH2 0x5F4 DUP6 DUP3 DUP7 ADD PUSH2 0x58D JUMP JUMPDEST SWAP2 POP POP SWAP3 POP SWAP3 SWAP1 POP JUMP JUMPDEST PUSH32 0x4E487B7100000000000000000000000000000000000000000000000000000000 PUSH1 0x0 MSTORE PUSH1 0x22 PUSH1 0x4 MSTORE PUSH1 0x24 PUSH1 0x0 REVERT JUMPDEST PUSH1 0x0 PUSH1 0x2 DUP3 DIV SWAP1 POP PUSH1 0x1 DUP3 AND DUP1 PUSH2 0x645 JUMPI PUSH1 0x7F DUP3 AND SWAP2 POP JUMPDEST PUSH1 0x20 DUP3 LT DUP2 SUB PUSH2 0x658 JUMPI PUSH2 0x657 PUSH2 0x5FE JUMP JUMPDEST JUMPDEST POP SWAP2 SWAP1 POP JUMP JUMPDEST PUSH1 0x0 DUP2 SWAP1 POP DUP2 PUSH1 0x0 MSTORE PUSH1 0x20 PUSH1 0x0 KECCAK256 SWAP1 POP SWAP2 SWAP1 POP JUMP JUMPDEST PUSH1 0x0 PUSH1 0x20 PUSH1 0x1F DUP4 ADD DIV SWAP1 POP SWAP2 SWAP1 POP JUMP JUMPDEST PUSH1 0x0 DUP3 DUP3 SHL SWAP1 POP SWAP3 SWAP2 POP POP JUMP JUMPDEST PUSH1 0x0 PUSH1 0x8 DUP4 MUL PUSH2 0x6C0 PUSH32 0xFFFFFFFFFFFFFFFFFFFFFFFFFFFFFFFFFFFFFFFFFFFFFFFFFFFFFFFFFFFFFFFF DUP3 PUSH2 0x683 JUMP JUMPDEST PUSH2 0x6CA DUP7 DUP4 PUSH2 0x683 JUMP JUMPDEST SWAP6 POP DUP1 NOT DUP5 AND SWAP4 POP DUP1 DUP7 AND DUP5 OR SWAP3 POP POP POP SWAP4 SWAP3 POP POP POP JUMP JUMPDEST PUSH1 0x0 DUP2 SWAP1 POP SWAP2 SWAP1 POP JUMP JUMPDEST PUSH1 0x0 PUSH2 0x707 PUSH2 0x702 PUSH2 0x6FD DUP5 PUSH2 0x38B JUMP JUMPDEST PUSH2 0x6E2 JUMP JUMPDEST PUSH2 0x38B JUMP JUMPDEST SWAP1 POP SWAP2 SWAP1 POP JUMP JUMPDEST PUSH1 0x0 DUP2 SWAP1 POP SWAP2 SWAP1 POP JUMP JUMPDEST PUSH2 0x721 DUP4 PUSH2 0x6EC JUMP JUMPDEST PUSH2 0x735 PUSH2 0x72D DUP3 PUSH2 0x70E JUMP JUMPDEST DUP5 DUP5 SLOAD PUSH2 0x690 JUMP JUMPDEST DUP3 SSTORE POP POP POP POP JUMP JUMPDEST PUSH1 0x0 SWAP1 JUMP JUMPDEST PUSH2 0x74A PUSH2 0x73D JUMP JUMPDEST PUSH2 0x755 DUP2 DUP5 DUP5 PUSH2 0x718 JUMP JUMPDEST POP POP POP JUMP JUMPDEST JUMPDEST DUP2 DUP2 LT ISZERO PUSH2 0x779 JUMPI PUSH2 0x76E PUSH1 0x0 DUP3 PUSH2 0x742 JUMP JUMPDEST PUSH1 0x1 DUP2 ADD SWAP1 POP PUSH2 0x75B JUMP JUMPDEST POP POP JUMP JUMPDEST PUSH1 0x1F DUP3 GT ISZERO PUSH2 0x7BE JUMPI PUSH2 0x78F DUP2 PUSH2 0x65E JUMP JUMPDEST PUSH2 0x798 DUP5 PUSH2 0x673 JUMP JUMPDEST DUP2 ADD PUSH1 0x20 DUP6 LT ISZERO PUSH2 0x7A7 JUMPI DUP2 SWAP1 POP JUMPDEST PUSH2 0x7BB PUSH2 0x7B3 DUP6 PUSH2 0x673 JUMP JUMPDEST DUP4 ADD DUP3 PUSH2 0x75A JUMP JUMPDEST POP POP JUMPDEST POP POP POP JUMP JUMPDEST PUSH1 0x0 DUP3 DUP3 SHR SWAP1 POP SWAP3 SWAP2 POP POP JUMP JUMPDEST PUSH1 0x0 PUSH2 0x7E1 PUSH1 0x0 NOT DUP5 PUSH1 0x8 MUL PUSH2 0x7C3 JUMP JUMPDEST NOT DUP1 DUP4 AND SWAP2 POP POP SWAP3 SWAP2 POP POP JUMP JUMPDEST PUSH1 0x0 PUSH2 0x7FA DUP4 DUP4 PUSH2 0x7D0 JUMP JUMPDEST SWAP2 POP DUP3 PUSH1 0x2 MUL DUP3 OR SWAP1 POP SWAP3 SWAP2 POP POP JUMP JUMPDEST PUSH2 0x813 DUP3 PUSH2 0x2D9 JUMP JUMPDEST PUSH8 0xFFFFFFFFFFFFFFFF DUP2 GT ISZERO PUSH2 0x82C JUMPI PUSH2 0x82B PUSH2 0x439 JUMP JUMPDEST JUMPDEST PUSH2 0x836 DUP3 SLOAD PUSH2 0x62D JUMP JUMPDEST PUSH2 0x841 DUP3 DUP3 DUP6 PUSH2 0x77D JUMP JUMPDEST PUSH1 0x0 PUSH1 0x20 SWAP1 POP PUSH1 0x1F DUP4 GT PUSH1 0x1 DUP2 EQ PUSH2 0x874 JUMPI PUSH1 0x0 DUP5 ISZERO PUSH2 0x862 JUMPI DUP3 DUP8 ADD MLOAD SWAP1 POP JUMPDEST PUSH2 0x86C DUP6 DUP3 PUSH2 0x7EE JUMP JUMPDEST DUP7 SSTORE POP PUSH2 0x8D4 JUMP JUMPDEST PUSH1 0x1F NOT DUP5 AND PUSH2 0x882 DUP7 PUSH2 0x65E JUMP JUMPDEST PUSH1 0x0 JUMPDEST DUP3 DUP2 LT ISZERO PUSH2 0x8AA JUMPI DUP5 DUP10 ADD MLOAD DUP3 SSTORE PUSH1 0x1 DUP3 ADD SWAP2 POP PUSH1 0x20 DUP6 ADD SWAP5 POP PUSH1 0x20 DUP2 ADD SWAP1 POP PUSH2 0x885 JUMP JUMPDEST DUP7 DUP4 LT ISZERO PUSH2 0x8C7 JUMPI DUP5 DUP10 ADD MLOAD PUSH2 0x8C3 PUSH1 0x1F DUP10 AND DUP3 PUSH2 0x7D0 JUMP JUMPDEST DUP4 SSTORE POP JUMPDEST PUSH1 0x1 PUSH1 0x2 DUP9 MUL ADD DUP9 SSTORE POP POP POP JUMPDEST POP POP POP POP POP POP JUMP JUMPDEST PUSH32 0x536F6D65204E616D650000000000000000000000000000000000000000000000 PUSH1 0x0 DUP3 ADD MSTORE POP JUMP JUMPDEST PUSH1 0x0 PUSH2 0x912 PUSH1 0x9 DUP4 PUSH2 0x2E4 JUMP JUMPDEST SWAP2 POP PUSH2 0x91D DUP3 PUSH2 0x8DC JUMP JUMPDEST PUSH1 0x20 DUP3 ADD SWAP1 POP SWAP2 SWAP1 POP JUMP JUMPDEST PUSH1 0x0 PUSH1 0x20 DUP3 ADD SWAP1 POP DUP2 DUP2 SUB PUSH1 0x0 DUP4 ADD MSTORE PUSH2 0x941 DUP2 PUSH2 0x905 JUMP JUMPDEST SWAP1 POP SWAP2 SWAP1 POP JUMP JUMPDEST PUSH1 0x0 DUP2 MLOAD SWAP1 POP SWAP2 SWAP1 POP JUMP JUMPDEST PUSH1 0x0 DUP2 SWAP1 POP SWAP3 SWAP2 POP POP JUMP JUMPDEST PUSH1 0x0 PUSH2 0x969 DUP3 PUSH2 0x948 JUMP JUMPDEST PUSH2 0x973 DUP2 DUP6 PUSH2 0x953 JUMP JUMPDEST SWAP4 POP PUSH2 0x983 DUP2 DUP6 PUSH1 0x20 DUP7 ADD PUSH2 0x2F5 JUMP JUMPDEST DUP1 DUP5 ADD SWAP2 POP POP SWAP3 SWAP2 POP POP JUMP JUMPDEST PUSH1 0x0 PUSH2 0x99B DUP3 DUP5 PUSH2 0x95E JUMP JUMPDEST SWAP2 POP DUP2 SWAP1 POP SWAP3 SWAP2 POP POP JUMP INVALID LOG2 PUSH5 0x6970667358 0x22 SLT KECCAK256 SWAP16 0x5D SWAP13 SUB SIGNEXTEND 0xDC CALL PUSH16 0xC9E083805436BD505F7E39E8F4D8804A ORIGIN COINBASE EQ CODESIZE INVALID PUSH21 0xA1AB64736F6C634300081100330000000000000000 "},"methodIdentifiers":{"name()":"06fdde03","sender()":"67e404ce","testDelegateCall(string,address)":"a1404ddb","value()":"3fa4f245"}}}}}