{
  "_format": "hh-sol-artifact-1",
  "contractName": "Lottery",
  "sourceName": "contracts/Lottery.sol",
  "abi": [
    {
      "inputs": [],
      "stateMutability": "nonpayable",
      "type": "constructor"
    },
    {
      "anonymous": false,
      "inputs": [
        {
          "indexed": false,
          "internalType": "address",
          "name": "",
          "type": "address"
        }
      ],
      "name": "newWinner",
      "type": "event"
    },
    {
      "inputs": [],
      "name": "buyTicket",
      "outputs": [],
      "stateMutability": "payable",
      "type": "function"
    },
    {
      "inputs": [],
      "name": "contractOwner",
      "outputs": [
        {
          "internalType": "address",
          "name": "",
          "type": "address"
        }
      ],
      "stateMutability": "view",
      "type": "function"
    },
    {
      "inputs": [],
      "name": "pickWinner",
      "outputs": [],
      "stateMutability": "nonpayable",
      "type": "function"
    },
    {
      "inputs": [],
      "name": "viewCurrentJackpot",
      "outputs": [
        {
          "internalType": "uint256",
          "name": "",
          "type": "uint256"
        }
      ],
      "stateMutability": "view",
      "type": "function"
    },
    {
      "inputs": [],
      "name": "viewNumberOfPlayers",
      "outputs": [
        {
          "internalType": "uint256",
          "name": "",
          "type": "uint256"
        }
      ],
      "stateMutability": "view",
      "type": "function"
    },
    {
      "inputs": [],
      "name": "viewTicketPrice",
      "outputs": [
        {
          "internalType": "uint256",
          "name": "",
          "type": "uint256"
        }
      ],
      "stateMutability": "view",
      "type": "function"
    }
  ],
  "bytecode": "0x608060405234801561001057600080fd5b50336000806101000a81548173ffffffffffffffffffffffffffffffffffffffff021916908373ffffffffffffffffffffffffffffffffffffffff160217905550670de0b6b3a7640000600381905550610a558061006f6000396000f3fe6080604052600436106100555760003560e01c8063317ee7d81461005a5780634ffda1b1146100855780635d495aea146100b0578063636ad6a6146100c7578063ce606ee0146100f2578063edca914c1461011d575b600080fd5b34801561006657600080fd5b5061006f610127565b60405161007c9190610512565b60405180910390f35b34801561009157600080fd5b5061009a610178565b6040516100a79190610512565b60405180910390f35b3480156100bc57600080fd5b506100c5610180565b005b3480156100d357600080fd5b506100dc6102f6565b6040516100e99190610512565b60405180910390f35b3480156100fe57600080fd5b50610107610300565b604051610114919061056e565b60405180910390f35b610125610324565b005b600061013161042d565b610170576040517f08c379a00000000000000000000000000000000000000000000000000000000081526004016101679061060c565b60405180910390fd5b600254905090565b600047905090565b61018861042d565b6101c7576040517f08c379a00000000000000000000000000000000000000000000000000000000081526004016101be9061060c565b60405180910390fd5b60006001805490506101d7610483565b6101e1919061065b565b90506000600281905550600181815481106101ff576101fe61068c565b5b9060005260206000200160009054906101000a900473ffffffffffffffffffffffffffffffffffffffff1673ffffffffffffffffffffffffffffffffffffffff166108fc479081150290604051600060405180830381858888f1935050505015801561026f573d6000803e3d6000fd5b507f7f63b2f0cf3f2b69ecf9bf0781e1b47460f549607f6ff85d1fd0bfcb4b0bc4e9600182815481106102a5576102a461068c565b5b9060005260206000200160009054906101000a900473ffffffffffffffffffffffffffffffffffffffff166040516102dd919061071a565b60405180910390a1600160006102f391906104bb565b50565b6000600354905090565b60008054906101000a900473ffffffffffffffffffffffffffffffffffffffff1681565b61032c61042d565b1561036c576040517f08c379a000000000000000000000000000000000000000000000000000000000815260040161036390610781565b60405180910390fd5b60035434146103b0576040517f08c379a00000000000000000000000000000000000000000000000000000000081526004016103a7906107ed565b60405180910390fd5b6001339080600181540180825580915050600190039060005260206000200160009091909190916101000a81548173ffffffffffffffffffffffffffffffffffffffff021916908373ffffffffffffffffffffffffffffffffffffffff160217905550600260008154809291906104269061083c565b9190505550565b60003373ffffffffffffffffffffffffffffffffffffffff1660008054906101000a900473ffffffffffffffffffffffffffffffffffffffff1673ffffffffffffffffffffffffffffffffffffffff1614905090565b6000424443600160405160200161049d94939291906109d5565b6040516020818303038152906040528051906020012060001c905090565b50805460008255906000526020600020908101906104d991906104dc565b50565b5b808211156104f55760008160009055506001016104dd565b5090565b6000819050919050565b61050c816104f9565b82525050565b60006020820190506105276000830184610503565b92915050565b600073ffffffffffffffffffffffffffffffffffffffff82169050919050565b60006105588261052d565b9050919050565b6105688161054d565b82525050565b6000602082019050610583600083018461055f565b92915050565b600082825260208201905092915050565b7f4f6e6c7920746865206f776e65722063616e20706572666f726d20746869732060008201527f616374696f6e2e00000000000000000000000000000000000000000000000000602082015250565b60006105f6602783610589565b91506106018261059a565b604082019050919050565b60006020820190508181036000830152610625816105e9565b9050919050565b7f4e487b7100000000000000000000000000000000000000000000000000000000600052601260045260246000fd5b6000610666826104f9565b9150610671836104f9565b9250826106815761068061062c565b5b828206905092915050565b7f4e487b7100000000000000000000000000000000000000000000000000000000600052603260045260246000fd5b6000819050919050565b60006106e06106db6106d68461052d565b6106bb565b61052d565b9050919050565b60006106f2826106c5565b9050919050565b6000610704826106e7565b9050919050565b610714816106f9565b82525050565b600060208201905061072f600083018461070b565b92915050565b7f546865206f776e65722063616e2774206a6f696e20746865206c6f7465727279600082015250565b600061076b602083610589565b915061077682610735565b602082019050919050565b6000602082019050818103600083015261079a8161075e565b9050919050565b7f506c6561736520706169642074686520636f727265637420616d6f756e742e00600082015250565b60006107d7601f83610589565b91506107e2826107a1565b602082019050919050565b60006020820190508181036000830152610806816107ca565b9050919050565b7f4e487b7100000000000000000000000000000000000000000000000000000000600052601160045260246000fd5b6000610847826104f9565b91507fffffffffffffffffffffffffffffffffffffffffffffffffffffffffffffffff82036108795761087861080d565b5b600182019050919050565b6000819050919050565b61089f61089a826104f9565b610884565b82525050565b600081549050919050565b600081905092915050565b60008190508160005260206000209050919050565b60006108db8261052d565b9050919050565b6108eb816108d0565b82525050565b60006108fd83836108e2565b60208301905092915050565b60008160001c9050919050565b600073ffffffffffffffffffffffffffffffffffffffff82169050919050565b600061094961094483610909565b610916565b9050919050565b600061095c8254610936565b9050919050565b6000600182019050919050565b600061097b826108a5565b61098581856108b0565b9350610990836108bb565b8060005b838110156109c8576109a582610950565b6109af88826108f1565b97506109ba83610963565b925050600181019050610994565b5085935050505092915050565b60006109e1828761088e565b6020820191506109f1828661088e565b602082019150610a01828561088e565b602082019150610a118284610970565b91508190509594505050505056fea2646970667358221220e7278093ea1cbf7c13605085dd0873819035c34d1897d099a143bb38e002bafe64736f6c63430008110033",
  "linkReferences": {},
  "deployedLinkReferences": {}
}