{
  "_format": "hh-sol-artifact-1",
  "contractName": "SupplyChain",
  "sourceName": "contracts/SupplyChain.sol",
  "abi": [
    {
      "inputs": [],
      "stateMutability": "nonpayable",
      "type": "constructor"
    },
    {
      "anonymous": false,
      "inputs": [
        {
          "indexed": false,
          "internalType": "uint256",
          "name": "skuCount",
          "type": "uint256"
        }
      ],
      "name": "forSaleEvent",
      "type": "event"
    },
    {
      "anonymous": false,
      "inputs": [
        {
          "indexed": false,
          "internalType": "string",
          "name": "name",
          "type": "string"
        },
        {
          "indexed": false,
          "internalType": "uint256",
          "name": "price",
          "type": "uint256"
        }
      ],
      "name": "newItemAdded",
      "type": "event"
    },
    {
      "anonymous": false,
      "inputs": [
        {
          "indexed": false,
          "internalType": "uint256",
          "name": "sku",
          "type": "uint256"
        }
      ],
      "name": "shippedEvent",
      "type": "event"
    },
    {
      "anonymous": false,
      "inputs": [
        {
          "indexed": false,
          "internalType": "uint256",
          "name": "sku",
          "type": "uint256"
        }
      ],
      "name": "soldEvent",
      "type": "event"
    },
    {
      "inputs": [
        {
          "internalType": "string",
          "name": "_name",
          "type": "string"
        },
        {
          "internalType": "uint256",
          "name": "_price",
          "type": "uint256"
        }
      ],
      "name": "addItem",
      "outputs": [],
      "stateMutability": "nonpayable",
      "type": "function"
    },
    {
      "inputs": [
        {
          "internalType": "uint256",
          "name": "_sku",
          "type": "uint256"
        }
      ],
      "name": "buyItem",
      "outputs": [],
      "stateMutability": "payable",
      "type": "function"
    },
    {
      "inputs": [
        {
          "internalType": "uint256",
          "name": "_sku",
          "type": "uint256"
        }
      ],
      "name": "shipItem",
      "outputs": [],
      "stateMutability": "nonpayable",
      "type": "function"
    },
    {
      "inputs": [
        {
          "internalType": "uint256",
          "name": "_sku",
          "type": "uint256"
        }
      ],
      "name": "viewItem",
      "outputs": [
        {
          "internalType": "string",
          "name": "name",
          "type": "string"
        },
        {
          "internalType": "uint256",
          "name": "sku",
          "type": "uint256"
        },
        {
          "internalType": "uint256",
          "name": "price",
          "type": "uint256"
        },
        {
          "internalType": "string",
          "name": "stateIs",
          "type": "string"
        },
        {
          "internalType": "address",
          "name": "seller",
          "type": "address"
        },
        {
          "internalType": "address",
          "name": "buyer",
          "type": "address"
        }
      ],
      "stateMutability": "view",
      "type": "function"
    }
  ],
  "bytecode": "0x608060405234801561001057600080fd5b50336000806101000a81548173ffffffffffffffffffffffffffffffffffffffff021916908373ffffffffffffffffffffffffffffffffffffffff160217905550600060018190555061142a806100686000396000f3fe60806040526004361061003f5760003560e01c806362d6bbdf146100445780636f7b01551461006d578063e7fb74c7146100af578063f61c899a146100cb575b600080fd5b34801561005057600080fd5b5061006b60048036038101906100669190610c22565b6100f4565b005b34801561007957600080fd5b50610094600480360381019061008f9190610c7e565b6102ed565b6040516100a696959493929190610d7a565b60405180910390f35b6100c960048036038101906100c49190610c7e565b610544565b005b3480156100d757600080fd5b506100f260048036038101906100ed9190610c7e565b6108ea565b005b600180546101029190610e18565b6001819055507f4e53f7060f93639cc066c21ca1f6268569e9bd856bbd98ba9b62dfc7329867846001546040516101399190610e4c565b60405180910390a16040518060c0016040528083815260200160015481526020018281526020016000600281111561017457610173610e67565b5b81526020013373ffffffffffffffffffffffffffffffffffffffff168152602001600073ffffffffffffffffffffffffffffffffffffffff1681525060026000600154815260200190815260200160002060008201518160000190816101da91906110a2565b50602082015181600101556040820151816002015560608201518160030160006101000a81548160ff0219169083600281111561021a57610219610e67565b5b021790555060808201518160030160016101000a81548173ffffffffffffffffffffffffffffffffffffffff021916908373ffffffffffffffffffffffffffffffffffffffff16021790555060a08201518160040160006101000a81548173ffffffffffffffffffffffffffffffffffffffff021916908373ffffffffffffffffffffffffffffffffffffffff1602179055509050507fb11f193d00bb2969f96ad8f7bd004c3d2b63996f655df9b3aaa1bc7de147e82982826040516102e1929190611174565b60405180910390a15050565b60606000806060600080600060026000898152602001908152602001600020600001805461031a90610ec5565b80601f016020809104026020016040519081016040528092919081815260200182805461034690610ec5565b80156103935780601f1061036857610100808354040283529160200191610393565b820191906000526020600020905b81548152906001019060200180831161037657829003601f168201915b5050505050965060026000898152602001908152602001600020600101549550600260008981526020019081526020016000206002015494506002600089815260200190815260200160002060030160009054906101000a900460ff16600281111561040257610401610e67565b5b905060008103610449576040518060400160405280600881526020017f466f722053616c6500000000000000000000000000000000000000000000000081525093506104c8565b6001810361048e576040518060400160405280600481526020017f536f6c640000000000000000000000000000000000000000000000000000000081525093506104c7565b6040518060400160405280600781526020017f536869707065640000000000000000000000000000000000000000000000000081525093505b5b6002600089815260200190815260200160002060030160019054906101000a900473ffffffffffffffffffffffffffffffffffffffff1692506002600089815260200190815260200160002060040160009054906101000a900473ffffffffffffffffffffffffffffffffffffffff1691505091939550919395565b806002600082815260200190815260200160002060030160019054906101000a900473ffffffffffffffffffffffffffffffffffffffff1673ffffffffffffffffffffffffffffffffffffffff163373ffffffffffffffffffffffffffffffffffffffff16036105e9576040517f08c379a00000000000000000000000000000000000000000000000000000000081526004016105e0906111f0565b60405180910390fd5b81600060028111156105fe576105fd610e67565b5b6002600083815260200190815260200160002060030160009054906101000a900460ff16600281111561063457610633610e67565b5b14610674576040517f08c379a000000000000000000000000000000000000000000000000000000000815260040161066b9061125c565b60405180910390fd5b6002600084815260200190815260200160002060020154803410156106ce576040517f08c379a00000000000000000000000000000000000000000000000000000000081526004016106c5906112c8565b60405180910390fd5b836000339050600060026000888152602001908152602001600020600201549050816002600089815260200190815260200160002060040160006101000a81548173ffffffffffffffffffffffffffffffffffffffff021916908373ffffffffffffffffffffffffffffffffffffffff16021790555060016002600089815260200190815260200160002060030160006101000a81548160ff0219169083600281111561077e5761077d610e67565b5b02179055506002600088815260200190815260200160002060030160019054906101000a900473ffffffffffffffffffffffffffffffffffffffff1673ffffffffffffffffffffffffffffffffffffffff166108fc829081150290604051600060405180830381858888f193505050501580156107ff573d6000803e3d6000fd5b507f502bbb2026cfbded42c318256e02a9a474a68233e156a58a2402d249259f41bb8760405161082f9190610e4c565b60405180910390a150506000600260008381526020019081526020016000206002015490506000813461086291906112e8565b90506002600084815260200190815260200160002060040160009054906101000a900473ffffffffffffffffffffffffffffffffffffffff1673ffffffffffffffffffffffffffffffffffffffff166108fc829081150290604051600060405180830381858888f193505050501580156108e0573d6000803e3d6000fd5b5050505050505050565b6002600082815260200190815260200160002060030160019054906101000a900473ffffffffffffffffffffffffffffffffffffffff168073ffffffffffffffffffffffffffffffffffffffff163373ffffffffffffffffffffffffffffffffffffffff161461098f576040517f08c379a000000000000000000000000000000000000000000000000000000000815260040161098690611368565b60405180910390fd5b600160028111156109a3576109a2610e67565b5b6002600084815260200190815260200160002060030160009054906101000a900460ff1660028111156109d9576109d8610e67565b5b14610a19576040517f08c379a0000000000000000000000000000000000000000000000000000000008152600401610a10906113d4565b60405180910390fd5b600280600084815260200190815260200160002060030160006101000a81548160ff02191690836002811115610a5257610a51610e67565b5b02179055507ffcefa09f14bfcd4e1c503a9a06f0815414631ba0b3e66ae40a890b9bbd88903182604051610a869190610e4c565b60405180910390a15050565b6000604051905090565b600080fd5b600080fd5b600080fd5b600080fd5b6000601f19601f8301169050919050565b7f4e487b7100000000000000000000000000000000000000000000000000000000600052604160045260246000fd5b610af982610ab0565b810181811067ffffffffffffffff82111715610b1857610b17610ac1565b5b80604052505050565b6000610b2b610a92565b9050610b378282610af0565b919050565b600067ffffffffffffffff821115610b5757610b56610ac1565b5b610b6082610ab0565b9050602081019050919050565b82818337600083830152505050565b6000610b8f610b8a84610b3c565b610b21565b905082815260208101848484011115610bab57610baa610aab565b5b610bb6848285610b6d565b509392505050565b600082601f830112610bd357610bd2610aa6565b5b8135610be3848260208601610b7c565b91505092915050565b6000819050919050565b610bff81610bec565b8114610c0a57600080fd5b50565b600081359050610c1c81610bf6565b92915050565b60008060408385031215610c3957610c38610a9c565b5b600083013567ffffffffffffffff811115610c5757610c56610aa1565b5b610c6385828601610bbe565b9250506020610c7485828601610c0d565b9150509250929050565b600060208284031215610c9457610c93610a9c565b5b6000610ca284828501610c0d565b91505092915050565b600081519050919050565b600082825260208201905092915050565b60005b83811015610ce5578082015181840152602081019050610cca565b60008484015250505050565b6000610cfc82610cab565b610d068185610cb6565b9350610d16818560208601610cc7565b610d1f81610ab0565b840191505092915050565b610d3381610bec565b82525050565b600073ffffffffffffffffffffffffffffffffffffffff82169050919050565b6000610d6482610d39565b9050919050565b610d7481610d59565b82525050565b600060c0820190508181036000830152610d948189610cf1565b9050610da36020830188610d2a565b610db06040830187610d2a565b8181036060830152610dc28186610cf1565b9050610dd16080830185610d6b565b610dde60a0830184610d6b565b979650505050505050565b7f4e487b7100000000000000000000000000000000000000000000000000000000600052601160045260246000fd5b6000610e2382610bec565b9150610e2e83610bec565b9250828201905080821115610e4657610e45610de9565b5b92915050565b6000602082019050610e616000830184610d2a565b92915050565b7f4e487b7100000000000000000000000000000000000000000000000000000000600052602160045260246000fd5b7f4e487b7100000000000000000000000000000000000000000000000000000000600052602260045260246000fd5b60006002820490506001821680610edd57607f821691505b602082108103610ef057610eef610e96565b5b50919050565b60008190508160005260206000209050919050565b60006020601f8301049050919050565b600082821b905092915050565b600060088302610f587fffffffffffffffffffffffffffffffffffffffffffffffffffffffffffffffff82610f1b565b610f628683610f1b565b95508019841693508086168417925050509392505050565b6000819050919050565b6000610f9f610f9a610f9584610bec565b610f7a565b610bec565b9050919050565b6000819050919050565b610fb983610f84565b610fcd610fc582610fa6565b848454610f28565b825550505050565b600090565b610fe2610fd5565b610fed818484610fb0565b505050565b5b8181101561101157611006600082610fda565b600181019050610ff3565b5050565b601f8211156110565761102781610ef6565b61103084610f0b565b8101602085101561103f578190505b61105361104b85610f0b565b830182610ff2565b50505b505050565b600082821c905092915050565b60006110796000198460080261105b565b1980831691505092915050565b60006110928383611068565b9150826002028217905092915050565b6110ab82610cab565b67ffffffffffffffff8111156110c4576110c3610ac1565b5b6110ce8254610ec5565b6110d9828285611015565b600060209050601f83116001811461110c57600084156110fa578287015190505b6111048582611086565b86555061116c565b601f19841661111a86610ef6565b60005b828110156111425784890151825560018201915060208501945060208101905061111d565b8683101561115f578489015161115b601f891682611068565b8355505b6001600288020188555050505b505050505050565b6000604082019050818103600083015261118e8185610cf1565b905061119d6020830184610d2a565b9392505050565b7f596f7520616c7265616479206f776e2074686973206974656d2e000000000000600082015250565b60006111da601a83610cb6565b91506111e5826111a4565b602082019050919050565b60006020820190508181036000830152611209816111cd565b9050919050565b7f74686973206974656d206973206e6f7420666f722073616c652e000000000000600082015250565b6000611246601a83610cb6565b915061125182611210565b602082019050919050565b6000602082019050818103600083015261127581611239565b9050919050565b7f746865206f6666657220697320746f6f206c6f772e0000000000000000000000600082015250565b60006112b2601583610cb6565b91506112bd8261127c565b602082019050919050565b600060208201905081810360008301526112e1816112a5565b9050919050565b60006112f382610bec565b91506112fe83610bec565b925082820390508181111561131657611315610de9565b5b92915050565b7f43616e277420766572696679207468652063616c6c65722e0000000000000000600082015250565b6000611352601883610cb6565b915061135d8261131c565b602082019050919050565b6000602082019050818103600083015261138181611345565b9050919050565b7f6974656d206973206e6f7420736f6c6420796574000000000000000000000000600082015250565b60006113be601483610cb6565b91506113c982611388565b602082019050919050565b600060208201905081810360008301526113ed816113b1565b905091905056fea26469706673582212204af8889208a3d85ff5d385f83fe15aeead590ba5976c8ae80d6ec4a376cd48f964736f6c63430008110033",
  "linkReferences": {},
  "deployedLinkReferences": {}
}