{
  "_format": "hh-sol-artifact-1",
  "contractName": "Message",
  "sourceName": "contracts/Message.sol",
  "abi": [
    {
      "inputs": [],
      "name": "message",
      "outputs": [
        {
          "internalType": "string",
          "name": "",
          "type": "string"
        }
      ],
      "stateMutability": "view",
      "type": "function"
    },
    {
      "inputs": [
        {
          "internalType": "string",
          "name": "_message",
          "type": "string"
        }
      ],
      "name": "setMessage",
      "outputs": [],
      "stateMutability": "nonpayable",
      "type": "function"
    },
    {
      "inputs": [
        {
          "internalType": "string",
          "name": "_message",
          "type": "string"
        }
      ],
      "name": "setPrivateMessage",
      "outputs": [],
      "stateMutability": "nonpayable",
      "type": "function"
    },
    {
      "inputs": [],
      "name": "viewMessage",
      "outputs": [
        {
          "internalType": "string",
          "name": "",
          "type": "string"
        }
      ],
      "stateMutability": "view",
      "type": "function"
    },
    {
      "inputs": [],
      "name": "viewPrivateMessage",
      "outputs": [
        {
          "internalType": "string",
          "name": "",
          "type": "string"
        }
      ],
      "stateMutability": "view",
      "type": "function"
    }
  ],
  "bytecode": "0x608060405234801561001057600080fd5b50336000806101000a81548173ffffffffffffffffffffffffffffffffffffffff021916908373ffffffffffffffffffffffffffffffffffffffff160217905550610a40806100606000396000f3fe608060405234801561001057600080fd5b50600436106100575760003560e01c8063191384d11461005c578063368b87721461007a5780639b3b049114610096578063e21f37ce146100b4578063f720bf55146100d2575b600080fd5b6100646100ee565b6040516100719190610470565b60405180910390f35b610094600480360381019061008f91906105db565b610180565b005b61009e6101d9565b6040516100ab9190610470565b60405180910390f35b6100bc61026b565b6040516100c99190610470565b60405180910390f35b6100ec60048036038101906100e791906105db565b6102f9565b005b6060600180546100fd90610653565b80601f016020809104026020016040519081016040528092919081815260200182805461012990610653565b80156101765780601f1061014b57610100808354040283529160200191610176565b820191906000526020600020905b81548152906001019060200180831161015957829003601f168201915b5050505050905090565b8060008151116101c5576040517f08c379a00000000000000000000000000000000000000000000000000000000081526004016101bc906106d0565b60405180910390fd5b81600190816101d491906108a6565b505050565b6060600280546101e890610653565b80601f016020809104026020016040519081016040528092919081815260200182805461021490610653565b80156102615780601f1061023657610100808354040283529160200191610261565b820191906000526020600020905b81548152906001019060200180831161024457829003601f168201915b5050505050905090565b6001805461027890610653565b80601f01602080910402602001604051908101604052809291908181526020018280546102a490610653565b80156102f15780601f106102c6576101008083540402835291602001916102f1565b820191906000526020600020905b8154815290600101906020018083116102d457829003601f168201915b505050505081565b3373ffffffffffffffffffffffffffffffffffffffff1660008054906101000a900473ffffffffffffffffffffffffffffffffffffffff1673ffffffffffffffffffffffffffffffffffffffff1614610387576040517f08c379a000000000000000000000000000000000000000000000000000000000815260040161037e906109ea565b60405180910390fd5b8060008151116103cc576040517f08c379a00000000000000000000000000000000000000000000000000000000081526004016103c3906106d0565b60405180910390fd5b81600290816103db91906108a6565b505050565b600081519050919050565b600082825260208201905092915050565b60005b8381101561041a5780820151818401526020810190506103ff565b60008484015250505050565b6000601f19601f8301169050919050565b6000610442826103e0565b61044c81856103eb565b935061045c8185602086016103fc565b61046581610426565b840191505092915050565b6000602082019050818103600083015261048a8184610437565b905092915050565b6000604051905090565b600080fd5b600080fd5b600080fd5b600080fd5b7f4e487b7100000000000000000000000000000000000000000000000000000000600052604160045260246000fd5b6104e882610426565b810181811067ffffffffffffffff82111715610507576105066104b0565b5b80604052505050565b600061051a610492565b905061052682826104df565b919050565b600067ffffffffffffffff821115610546576105456104b0565b5b61054f82610426565b9050602081019050919050565b82818337600083830152505050565b600061057e6105798461052b565b610510565b90508281526020810184848401111561059a576105996104ab565b5b6105a584828561055c565b509392505050565b600082601f8301126105c2576105c16104a6565b5b81356105d284826020860161056b565b91505092915050565b6000602082840312156105f1576105f061049c565b5b600082013567ffffffffffffffff81111561060f5761060e6104a1565b5b61061b848285016105ad565b91505092915050565b7f4e487b7100000000000000000000000000000000000000000000000000000000600052602260045260246000fd5b6000600282049050600182168061066b57607f821691505b60208210810361067e5761067d610624565b5b50919050565b7f506c6561736520696e736572742061206d657373616765000000000000000000600082015250565b60006106ba6017836103eb565b91506106c582610684565b602082019050919050565b600060208201905081810360008301526106e9816106ad565b9050919050565b60008190508160005260206000209050919050565b60006020601f8301049050919050565b600082821b905092915050565b6000600883026107527fffffffffffffffffffffffffffffffffffffffffffffffffffffffffffffffff82610715565b61075c8683610715565b95508019841693508086168417925050509392505050565b6000819050919050565b6000819050919050565b60006107a361079e61079984610774565b61077e565b610774565b9050919050565b6000819050919050565b6107bd83610788565b6107d16107c9826107aa565b848454610722565b825550505050565b600090565b6107e66107d9565b6107f18184846107b4565b505050565b5b818110156108155761080a6000826107de565b6001810190506107f7565b5050565b601f82111561085a5761082b816106f0565b61083484610705565b81016020851015610843578190505b61085761084f85610705565b8301826107f6565b50505b505050565b600082821c905092915050565b600061087d6000198460080261085f565b1980831691505092915050565b6000610896838361086c565b9150826002028217905092915050565b6108af826103e0565b67ffffffffffffffff8111156108c8576108c76104b0565b5b6108d28254610653565b6108dd828285610819565b600060209050601f83116001811461091057600084156108fe578287015190505b610908858261088a565b865550610970565b601f19841661091e866106f0565b60005b8281101561094657848901518255600182019150602085019450602081019050610921565b86831015610963578489015161095f601f89168261086c565b8355505b6001600288020188555050505b505050505050565b7f6f6e6c7920746865206f776e65722063616e20706572666f726d20746869732060008201527f616374696f6e2e00000000000000000000000000000000000000000000000000602082015250565b60006109d46027836103eb565b91506109df82610978565b604082019050919050565b60006020820190508181036000830152610a03816109c7565b905091905056fea26469706673582212208baa3af47ac16b0139602f5ead17dc51f9ffc515354886794d91bc8b685f126664736f6c63430008110033",
  "linkReferences": {},
  "deployedLinkReferences": {}
}